S01B00004943445F6D61617065616C6E655F726F626F742E73726563B1
S11300000C94BE000C9408050C9423050C94DB009E
S11300100C94DB000C94DB000C94DB000C94DB00F0
S11300200C94DB000C94DB000C94E8070C94260879
S11300300C94DB000C94DB000C94DB000C94DB00D0
S11300400C94DB000C94DB000C94DB000C94DB00C0
S11300500C94DB000C94DB000C94DB000C94DB00B0
S11300600C94DB000C94DB000C94DB000C94DB00A0
S11300700C94DB000C94DB000C94DB000C94DB0090
S11300800C94DB000C94DB000C94DB000C94DB0080
S11300900C94DB000C94DB000C94DB000C94DB0070
S11300A00C94DB000C94DB000C94DB0000010000DA
S11300B05F0112000200001C01430003000018014C
S11300C00401030904FA001C02030904E4001403F4
S11300D0030904D6000C0C03310032003300340051
S11300E035000000140354006500730074004200DE
S11300F065006E006300680000001C034C00610092
S113010075007200690020004D00690068006B00F2
S113011065006C0073000000040309040902430035
S1130120020100C03209040000010202010005249A
S1130130001001052401010104240206052406001F
S1130140010705820310004009040100020A0000AF
S11301500007050302400000070584024000001266
S113016001000202000010C0167A0400010102031B
S1130170010001C1120180360181360011241FBE25
S1130180CFEFDAE0DEBFCDBF11E0A0E0B1E0ECE4F8
S1130190FAE102C005900D92A83EB107D9F722E01A
S11301A0A8EEB1E001C01D92A93AB207E1F70E949E
S11301B081010C94240D0C94000088B1807888B9D6
S11301C085B1807885B93F9827980895279885E068
S11301D090E0FC013197F1F73F9A0197F1F7089508
S11301E03F9A85E090E0FC013197F1F72798E3E02E
S11301F0F0E03197F1F73F980197F1F7089598E00F
S113020043E050E025E030E0279AFA013197F1F716
S1130210882314F43F9801C03F9AF9013197F1F70C
S11302202798F9013197F1F71F9BFECF880F915062
S113023059F7279A83E090E00197F1F73F9825E07A
S113024030E0C9010197F1F72798C9010197F1F747
S113025086B1279AF9013197F1F78095881F88278D
S1130260881F089585B7806885BF85B7806885BF76
S113027083EF80BB8FEF81BB8AB1806C8AB95E9AB1
S11302805F98269A2E980895882381F0611102C000
S1130290899A01C08998411102C0889A01C088983E
S11302A0211102C08C9A08958C980895611102C09E
S11302B08E9A01C08E98411102C08D9A01C08D980A
S11302C0211102C08F9A08958F980895CF93C82F53
S11302D082FB222720F981FB442740F9682F6170B3
S11302E080E00E944401C5FB222720F9C4FB442777
S11302F040F9C3FB662760F981E00E944401CF9175
S11303000895E1E6F0E080E8808310820E943201E3
S113031089E00E9466010E942B0780E090E00E9421
S1130320D30C8093EA01813031F420E041E060E0B5
S11303300E9444012AC0823039F421E040E060E0A8
S113034081E00E94440121C0CAE020E040E061E075
S113035081E00E9444012FEF81EE94E0215080401F
S11303609040E1F700C0000020E040E060E081E060
S11303700E944401AFEFB1EEE4E0A150B040E04090
S1130380E1F700C00000C15001F7FFEF23EC89E062
S1130390F15020408040E1F700C0000020E040E040
S11303A060E081E00E9444019FEFA3ECB9E091502A
S11303B0A040B040E1F700C00000499B09C0109282
S11303C0EB0120E041E060E081E00E94440108C0CC
S11303D081E08093EB0121E040E060E00E94440171
S11303E08FE291E00E94D5090E946C058EE391E0B2
S11303F00E94D50985E491E00E94D5090E948705F1
S11304006AE082E00E9459068FE091E00E94FA06B9
S11304108091EB01811107C08091EA01823031F0B3
S11304208AE091E005C080E091E002C085E091E0BF
S11304300E94E9068EE391E00E94D509A12CB12C1B
S11304400CE511E0C6EFD1E05C2E4D2E0F2EF4E644
S11304508F2E912CF02D0F2EFCE72F2EF1E03F2E46
S1130460F02D712C612CCC2EDD2EEFE0AE16B104F4
S11304703CF420E041E060E080E00E9444011BC0C5
S1130480F0E5AF16B10474F49501369527953695C9
S1130490279536952795217040E060E080E00E9422
S11304A0440109C0B50176956795617020E040E08C
S11304B080E00E9444017501EAC18091EB01811141
S11304C0EEC088E492E00E94280681E591E00E9453
S11304D0D5090F2EF8E4AF2EF2E0BF2EF02DE72C55
S11304E0F62CD5012D915D011F922F93FF92EF926F
S11304F01F930F93DF93CF930E94320A8C2D9D2D6F
S11305000E94D509FFEFEF1AFF0A8DB79EB7089630
S11305100FB6F8949EBF0FBE8DBF9AE0E916F104A2
S113052001F780914902813089F5E8E4F2E08381A2
S113053090E0982F88272281820F911D9093F101DA
S11305408093F001258130E0322F22274481240F4B
S1130550311D30935702209356023F932F939F935C
S11305608F93A8E6B1E0BF93AF93DF93CF930E943C
S1130570320A852D942D0E94D5098DB79EB7089611
S11305800FB6F8949EBF0FBE8DBF7FC1823009F0B5
S113059063C0E8E4F2E0838190E0982F8827228109
S11305A0820F911D9093F1018093F001258130E039
S11305B0322F22274481240F311D30935702209378
S11305C05602E780F12CFE2CEE244681E40EF11C49
S11305D03F932F939F938F93A8E6B1E0BF93AF937C
S11305E0DF93CF930E94320A852D942D0E94D50962
S11305F08091F0019091F1010E943E058091560294
S1130600909157020E9455058DB79EB708960FB674
S1130610F8949EBF0FBE8DBFE114F10461F0872DE5
S1130620962DAFE8B1E01197F1F700C000000196F4
S1130630E816F906B1F7709256026092570270926A
S1130640F0016092F101872D962D0E943E05872DC1
S1130650962D0E94550519C1833071F4E8E4F2E047
S1130660838190E0982F88272281820F911D909397
S1130670E9018093E80109C11F928F933F922F9261
S1130680DF93CF930E94320A852D942D0E94D509C1
S11306900F900F900F900F900F900F90F6C088E47A
S11306A092E00E94280680914F0284FF2CC081E5CD
S11306B091E00E94D5090F2EF8E4AF2EF2E0BF2E90
S11306C0F02DE72CF62CD5012D915D011F922F936F
S11306D0FF92EF921F930F93DF93CF930E94320AFE
S11306E08C2D9D2D0E94D509FFEFEF1AFF0A8DB7BF
S11306F09EB708960FB6F8949EBF0FBE8DBF98E0C4
S1130700E916F10401F781E591E00E94D5090F2E65
S1130710F8E4AF2EF2E0BF2EF02DE72CF62CD50135
S11307202D915D011F922F93FF92EF921F930F93D0
S1130730DF93CF930E94320A8C2D9D2D0E94D50900
S1130740FFEFEF1AFF0A8DB79EB708960FB6F8941D
S11307509EBF0FBE8DBF96E0E916F10401F78091AC
S1130760480281110FC08091490281110BC0809110
S11307704C0290E0880F991F880F991F9093E9010C
S11307808093E80120914B0281EA820F8B3008F4B8
S113079053C030E00F2EF8E4AF2EF2E0BF2EF02D60
S11307A0D5011596EC91F0E0C401821B930BAC01CA
S11307B0440F551F440F551F480F591F4E9FC0012A
S11307C04F9F900D5E9F900D1124B4010E94E40987
S11307D07B017093F1016093F00124563109B90152
S11307E0660F771F660F771F260F371F3093570248
S11307F020935602D50117968C9184FF25C08091D1
S11308004A02A401481B5109E49FC001E59F900DD1
S1130810F49F900D112466E470E00E94E409E60E52
S1130820F71EF092F101E092F001260F371F30938A
S113083057022093560208C07092F0016092F101B1
S113084070925602609257028091480290E0409163
S1130850F0015091F101489F9001499F300D589F3C
S1130860300D11243093F1012093F0014091560290
S113087050915702489F9001499F300D589F300D69
S113088011243093570220935602E72CF62C0E9431
S1130890C006811112CE8091E8019091E9011816E9
S11308A0190654F401979093E9018093E8012E9A74
S11308B08FEF0E94660112C02E988091EB0188236D
S11308C039F021E040E060E081E00E94440106C08C
S11308D020E041E060E081E00E9444015701BFEF65
S11308E0AB1ABB0AE8ECEE16F1046CF48091F0014B
S11308F09091F1010E943E05809156029091570219
S11309000E94550508C080E090E00E943E0580E00A
S113091090E00E9455050E947307F82E882309F47D
S113092070C060E484E692E00E94A909803409F072
S113093068C0809164028F33D1F48091EA011F92E0
S11309408F931F928F938EE891E09F938F93DF9301
S1130950CF930E94320ACE010E94D5098DB79EB76B
S113096008960FB6F8949EBF0FBE8DBF4AC0893655
S113097079F580916502843659F586E692E00E9405
S11309800C0AF82EE92E682F80E090E00E94DB0C20
S1130990EF92FF928091EA011F928F938BEA91E08C
S11309A09F938F93DF93CF930E94320AF092EA01D0
S11309B0CE010E94D50987EC91E00E94D509EDB7DC
S11309C0FEB738960FB6F894FEBF0FBEEDBF19C040
S11309D084E692E09F938F931F92FF928AED91E0B9
S11309E09F938F93DF93CF930E94320ACE010E948C
S11309F0D5098DB79EB708960FB6F8949EBF0FBE63
S1130A008DBFAFE3BCE91197F1F700C000002DCD15
S1130A101F920F920FB60F9211248F939F93809180
S1130A20EE019091EF0101969093EF018093EE0116
S1130A309EB180E489278EB99F918F910F900FBE4C
S1130A400F901F9018951F920F920FB60F921124BA
S1130A508F939F938091EC019091ED010196909377
S1130A60ED018093EC019EB180E489278EB99F91BA
S1130A708F910F900FBE0F901F901895CF93DF9317
S1130A80C82FD92F0E94E60082E50E94FF0080E073
S1130A900E94FF008D2F0E94FF008C2F0E94FF00F8
S1130AA00E94F000DF91CF910895CF93DF93C82F78
S1130AB0D92F0E94E60084E50E94FF0080E00E9496
S1130AC0FF008D2F0E94FF008C2F0E94FF000E94C8
S1130AD0F000DF91CF9108950E94DD0080E090E066
S1130AE00E943E0580E090E00E943E0580E090E098
S1130AF00E943E0580E090E00E94550580E090E071
S1130B000E94550580E090E00E94550508950E94DA
S1130B100A0780E00E94100781E00E9416070895EA
S1130B20EF92FF921F93CF93DF93E82E80E00E9411
S1130B301C07C7E0D0E010E0F12C97010C2E02C096
S1130B40359527950A94E2F720FF04C081E00E94BE
S1130B50220703C080E00E94220781E00E941C0754
S1130B608AE18A95F1F700C0110F0E9428078111CC
S1130B70116080E00E941C078AE18A95F1F700C0A9
S1130B802197D8F6812FDF91CF911F91FF90EF909D
S1130B900895CF9380E00E9416078FEF0E9490057E
S1130BA0C82F81E00E9416078C2FCF910895EF92F1
S1130BB0FF920F931F93CF93DF934423A1F0EC0193
S1130BC0062F172F4150E42EF12C2FEFE21AF20AD0
S1130BD0E80EF91E89910E949005F80181938F0116
S1130BE0CE15DF05B9F7DF91CF911F910F91FF90DB
S1130BF0EF9008950F931F93CF93DF93662371F0C3
S1130C00EC016150062F10E00F5F1F4F080F191FF2
S1130C1089910E949005C017D107D1F7DF91CF9138
S1130C201F910F910895CF93DF93C82FD62F80E0A3
S1130C300E9416078C2F8F7180620E9490058D2F61
S1130C400E94900581E00E941607DF91CF910895DC
S1130C50CF93DF93EC0180E00E94160781E60E94A7
S1130C6090054091A802BE01CE010E94D70581E003
S1130C700E94160760E487E00E941306DF91CF917B
S1130C80089580E00E94160782EE0E94900581E09C
S1130C900E94160760E787E00E94130680E00E9426
S1130CA010076BE080E00E94130681E00E941007A9
S1130CB008956093A802682F85E00E94130660E0FF
S1130CC081E10E9413066091A80282E10E9413064A
S1130CD060E083E10E94130660E084E10E94130651
S1130CE060E085E10E94130660E086E10E9413063D
S1130CF066E286E00E9413066CE080E00E94130620
S1130D0063E081E00E94130663E082E00E94130620
S1130D106FE484E00E94130660E08CE10E941306F5
S1130D200E94410608950F931F93CF93DF93082FDA
S1130D30EB01142F80E00E941607802F8F710E9410
S1130D409005412FBE01CE010E94D70581E00E948B
S1130D501607DF91CF911F910F910895CF93DF93E1
S1130D601F92CDB7DEB741E0BE016F5F7F4F87E1D1
S1130D700E949306898181700F90DF91CF9108952D
S1130D800E94C90586FD07C00E94AE0691E0882333
S1130D9019F090E001C091E0892F08950F931F93FB
S1130DA0CF93DF93C82F8B01D42F80E00E941607C6
S1130DB08C2F8F7180620E9490056D2FC8010E9454
S1130DC0FA0581E00E941607DF91CF911F910F91E0
S1130DD00895CF93DF93EC0180E00E94100745E073
S1130DE0BE018BE00E94CE0681E00E941007DF91D5
S1130DF0CF910895CF93DF93EC0145E0BC018AE0E5
S1130E000E94CE0645E0BE0180E10E94CE06DF913D
S1130E10CF9108956E9A209A219A229A2398089540
S1130E20882311F0769A089576980895882311F00E
S1130E30289A089528980895882311F0299A0895E6
S1130E4029980895882311F02A9A08952A980895D4
S1130E5083B18870089581E08093D70080EA8093FD
S1130E60D80082E189BD09B400FEFDCF80E98093FA
S1130E70D8001092E0001092F5011092F2018CE07B
S1130E808093E200789408952FB7F8948091F50147
S1130E90811104C02FBF8FEF9FEF089583E08093EB
S1130EA0E9008091E80085FD12C082FD04C00BC0FA
S1130EB082FD04C008C0E8EEF0E09BE690838081E8
S1130EC085FFF6CF04C02FBF8FEF9FEF0895809169
S1130ED0F1009091E80095FD03C09BE69093E80033
S1130EE02FBF90E008959FB7F8948091F50188236F
S1130EF089F083E08093E9008091F20081110BC0B6
S1130F002091E80022FF07C025FD05C02BE62093B1
S1130F10E80001C080E09FBF0895CF93DF939091D4
S1130F20F501992309F44CC09FB7F89424E0209369
S1130F30E9002091F301222349F02091E80025FDE6
S1130F4003C09FBF8FEF41C01092F3013091E400C2
S1130F50375E2091E80025FD24C09FBF9091E400F6
S1130F60931781F09091F501992361F1A9EEB0E016
S1130F7044E0E8EEF0E0C4EED0E00DC09FBF9881FD
S1130F80931305C081E08093F3018FEF1EC090910D
S1130F90F5019923C9F09FB7F8944C93208125FF5C
S1130FA0EDCF8093F1008091E80085FD03C08AE3D2
S1130FB08093E80085E08093F4019FBF80E005C042
S1130FC08FEF03C08FEF01C08FEFDF91CF910895B2
S1130FD01F920F920FB60F9211248F939F93EF934A
S1130FE0FF93E1EEF0E08081108283FF11C0109244
S1130FF0E90091E09093EB001092EC0092E1909361
S1131000ED0098E09093F0001092F5011092F20137
S113101082FF13C08091F501882379F08091F40157
S1131020882359F081508093F401811106C084E033
S11310308093E9008AE38093E800FF91EF919F9108
S11310408F910F900FBE0F901F9018951F920F92C3
S11310500FB60F9211240F931F932F933F934F9327
S11310605F936F937F938F939F93AF93BF93CF932C
S1131070DF93EF93FF931092E9008091E80083FFE0
S11310804CC1E1EFF0E0608180812081908130E00B
S1131090392B4081908150E0592B7081C08192EFAF
S11310A09093E800863009F058C004C081E2809330
S11310B0EB003AC166E08CEA90E0FC01A591B491A2
S11310C02A173B0711F0079623C0FC013296A5911D
S11310D0B4914A175B0711F007961AC0FC013496C5
S11310E045915491FC0136962491872F90E09C2BD6
S11310F08F3F910519F010F08FEF90E0821708F4FC
S1131100282FA8EEB0E070E16EEFC1EFD0E003C08D
S1131110615099F6CBCF8C91982F9570E1F382FDB5
S113112003C1322F213108F0372F332309F4F9C0DA
S1131130FA01832F94919883815031968111FACFCB
S11311408FEF830F90E00196480F591F231B6C9378
S11311502111E1CF3031F9F2E7C0853061F48EEF2F
S11311608093E800E8EEF0E0808180FFFDCF206806
S11311702093E300D9C0893009F035C06111CDC096
S11311802093F5011092F2011092F4018EEF8093F6
S1131190E80081E021E731E0C9EED0E0ABEEB0E059
S11311A00CEE10E06DEE70E08883A9014F5F5F4F95
S11311B0F90194919C93992361F0FA014491F80107
S11311C04083F901329694912D5F3F4FFB01908348
S11311D001C09A018F5F853039F7EAEEF0E08EE1C5
S11311E080831082A1C0883081F4603809F095C0F2
S11311F0E8EEF0E0808180FFFDCF8091F5018093DF
S1131200F1008EEF8093E8008FC08132B9F4613A27
S113121009F083C0E8EEF0E0808180FFFDCFE4E1D7
S1131220F1E02BE131E0A1EFB0E081918C93E21782
S1131230F307D9F78EEF8093E80076C08032D1F4BB
S1131240613209F06AC0E8EEF0E0808182FFFDCFF0
S1131250E4E1F1E02BE131E0A1EFB0E08C91819386
S1131260E217F307D9F7E8EEF0E08BEF80838EEF17
S113127080835AC0823271F4613209F04EC02093E7
S1131280F201E8EEF0E0808180FFFDCF8EEF8093E5
S1131290E8004AC081111AC0E8EEF0E0808180FFC6
S11312A0FDCF623851F4E9EEF0E040838091EB0029
S11312B085FB882780F9108201C080E0E1EFF0E02F
S11312C0808310828EEF8093E8002EC0982F9D7F3C
S11312D0913019F5623009F5232BF9F44F779FEF1C
S11312E0940F9430D0F49EEF9093E8004093E9007B
S11312F0833021F481E28093EB0016C089E180936E
S1131300EB0081E090E002C0880F991F4A95E2F754
S1131310EAEEF0E08083108207C081E28093EB0064
S113132003C06C932111F7CEFF91EF91DF91CF9120
S1131330BF91AF919F918F917F916F915F914F91E9
S11313403F912F911F910F910F900FBE0F901F90FF
S11313501895EF92FF920F931F93CF93DF93C62FAD
S11313608C01D0E012C00E9444078D3011F08A3005
S113137019F4F701108211C090EE980F9F3550F4C4
S1131380F70180830F5F1F4FDF5F7801DC13EBCF22
S1131390DC2F02C0DC1738F3CD2F8C2FDF91CF91D7
S11313A01F910F91FF90EF900895CF93DF93EC017D
S11313B08881882331F021960E948D0789918111BB
S11313C0FBCFDF91CF91089597FB072E16F400947D
S11313D007D077FD09D00E94F80907FC05D03EF438
S11313E0909581959F4F0895709561957F4F0895CD
S11313F0AA1BBB1B51E107C0AA1FBB1FA617B70737
S113140010F0A61BB70B881F991F5A95A9F7809552
S11314109095BC01CD010895FC0188279927E89493
S113142021912032E9F3293010F02E30C8F32B3209
S113143041F02D3239F4689404C00E942A0A820FC4
S1131440911D219120532A30C0F31EF4909581956B
S11314509F4F08957AE0979F902D879F802D910D3F
S113146011240895AEE0B0E0E8E3FAE00C94FB0C3C
S11314700D891E8986E08C831A8309838FEF9FE789
S11314809E838D83AE01475E5F4F6F89788DCE0159
S113149001960E94550A2F813885F801E20FF31F47
S11314A010822E96E4E00C94170DACE0B0E0EBE56E
S11314B0FAE00C94ED0C7C016B018A01FC011782AB
S11314C01682838181FFBDC1CE0101964C01F701D3
S11314D09381F60193FD859193FF81916F01882398
S11314E009F4ABC1853239F493FD859193FF819161
S11314F06F01853229F4B70190E00E943D0CE7CFDB
S1131500512C312C20E02032A0F48B3269F030F4DD
S1131510803259F0833269F420612CC08D3239F065
S1131520803339F4216026C02260246023C02860FF
S113153021C027FD27C030ED380F3A3078F426FF5C
S113154006C0FAE05F9E300D1124532E13C08AE0CA
S1131550389E300D1124332E20620CC08E3221F4BB
S113156026FD6BC1206406C08C3611F4206802C0CD
S1131570883641F4F60193FD859193FF81916F01C3
S11315808111C1CF982F9F7D9554933028F40C5F1F
S11315901F4FFFE3F9830DC0833631F0833771F0B9
S11315A0833509F05BC022C0F801808189830E5F16
S11315B01F4F44244394512C540115C03801F2E0C8
S11315C06F0E711CF801A080B18026FF03C0652D49
S11315D070E002C06FEF7FEFC5012C870E94320CD0
S11315E02C0183012C852F77222E17C03801F2E0BD
S11315F06F0E711CF801A080B18026FF03C0652D19
S113160070E002C06FEF7FEFC5012C870E94270CAA
S11316102C012C852068222E830123FC1BC0832DE2
S113162090E048165906B0F4B70180E290E00E94B9
S11316303D0C3A94F4CFF50127FC859127FE819166
S11316405F01B70190E00E943D0C31103A94F1E043
S11316504F1A51084114510471F7E5C0843611F052
S1131660893639F5F80127FF07C0608171818281CD
S113167093810C5F1F4F08C060817181072E000C9D
S1131680880B990B0E5F1F4F2F76722E97FF09C0A0
S113169090958095709561957F4F8F4F9F4F2068EF
S11316A0722E2AE030E0A4010E94750CA82EA8181E
S11316B044C0853729F42F7EB22E2AE030E025C0BD
S11316C0F22FF97FBF2E8F36C1F018F4883579F0E8
S11316D0B4C0803719F0883721F0AFC02F2F2061B4
S11316E0B22EB4FE0DC08B2D8460B82E09C024FF29
S11316F00AC09F2F9660B92E06C028E030E005C0CE
S113170020E130E002C020E132E0F801B7FE07C07A
S113171060817181828193810C5F1F4F06C060815B
S1131720718180E090E00E5F1F4FA4010E94750C50
S1131730A82EA818FB2DFF777F2E76FE0BC0372D21
S11317403E7FA51450F474FE0AC072FC08C0372D05
S11317503E7E05C0BA2C372D03C0BA2C01C0B52C6F
S113176034FF0DC0FE01EA0DF11D8081803311F4B8
S1131770397E09C032FF06C0B394B39404C0832FEA
S1131780867809F0B39433FD13C030FF06C05A2C99
S1131790B31418F4530C5B18B32CB31468F4B701E6
S11317A080E290E03C870E943D0CB3943C85F5CFE9
S11317B0B31410F43B1801C0312C34FF12C0B7012C
S11317C080E390E03C870E943D0C3C8532FF17C0CB
S11317D031FD03C088E790E002C088E590E0B701DE
S11317E00CC0832F867859F031FF02C08BE201C010
S11317F080E237FD8DE2B70190E00E943D0CA51414
S113180038F4B70180E390E00E943D0C5A94F7CF7E
S1131810AA94F401EA0DF11D8081B70190E00E94C1
S11318203D0CA110F5CF332009F451CEB70180E26D
S113183090E00E943D0C3A94F6CFF701868197819F
S113184002C08FEF9FEF2C96E2E10C94090DFC018E
S11318500590615070400110D8F7809590958E0FD7
S11318609F1F0895FC016150704001900110D8F74A
S1131870809590958E0F9F1F08950F931F93CF937C
S1131880DF93FB01238121FD03C08FEF9FEF28C06D
S113189022FF16C0468157812481358142175307A0
S11318A044F4A081B1819D012F5F3F4F3183208398
S11318B08C93268137812F5F3F4F3783268310C057
S11318C0EB01092F182F0084F185E02D0995892B50
S11318D0E1F68E819F8101969F838E83812F902FC5
S11318E0DF91CF911F910F910895FA01AA27283013
S11318F051F1203181F1E8946F936E7F6E5F7F4FD9
S11319008F4F9F4FAF4FB1E03ED0B4E03CD0670F54
S1131910781F891F9A1FA11D680F791F8A1F911DA7
S1131920A11D6A0F711D811D911DA11D20D009F4F7
S113193068943F912AE0269F11243019305D319339
S1131940DEF6CF010895462F4770405D4193B3E022
S11319500FD0C9F7F6CF462F4F70405D4A3318F0C9
S1131960495D31FD4052419302D0A9F7EACFB4E07A
S1131970A6959795879577956795BA95C9F7009732
S11319806105710508959B01AC010A2E06945795D3
S1131990479537952795BA95C9F7620F731F841F2A
S11319A0951FA01D0895F999FECF92BD81BDF89AA7
S11319B0992780B50895262FF999FECF92BD81BD50
S11319C0F89A019700B4021639F01FBA20BD0FB679
S11319D0F894FA9AF99A0FBE08952F923F924F9273
S11319E05F926F927F928F929F92AF92BF92CF92AB
S11319F0DF92EF92FF920F931F93CF93DF93CDB7B4
S1131A00DEB7CA1BDB0B0FB6F894DEBF0FBECDBF2B
S1131A1009942A88398848885F846E847D848C84FC
S1131A209B84AA84B984C884DF80EE80FD800C8105
S1131A301B81AA81B981CE0FD11D0FB6F894DEBFE8
S10F1A400FBECDBFED010895F894FFCF58
S1131A4CE7E7E7E7E7E7E7E7E7E2E7E7E7E7E1E721
S1131A5CE7E7E7E700E1000000000873756C6174C8
S1131A6C616E3A2025640A00646F6E65210A006970
S1131A7C6E6974206D6F746F72732E2E2E00446F0A
S1131A8C6E65210A00696E6974206E72662E2E2EA4
S1131A9C0052656365697665643A0A0025642E20F4
S1131AAC76616C3D25640A006B69697275736564B3
S1131ABC3A202564206A612025640A00756E6B6ED9
S1131ACC6F776E20747970653A2025640A00706F04
S1131ADC6E672028726F626F742025642C204E521E
S1131AEC463A203078452564290A005365742072DF
S1131AFC6F626F742049442066726F6D20256420D8
S1131B0C746F2025640A00526573746172742072B8
S1131B1C65717569726564210A00676F74282564A0
S10B1B2C293A2025730A000088
S9030000FC
