S01B00004943445F6D61617065616C6E655F726F626F742E73726563B1
S11300000C94BE000C944A030C9465030C94DB001E
S11300100C94DB000C94DB000C94DB000C94DB00F0
S11300200C94DB000C94DB000C940F060C944D062E
S11300300C94DB000C94DB000C94DB000C94DB00D0
S11300400C94DB000C94DB000C94DB000C94DB00C0
S11300500C94DB000C94DB000C94DB000C94DB00B0
S11300600C94DB000C94DB000C94DB000C94DB00A0
S11300700C94DB000C94DB000C94DB000C94DB0090
S11300800C94DB000C94DB000C94DB000C94DB0080
S11300900C94DB000C94DB000C94DB000C94DB0070
S11300A00C94DB000C94DB000C94DB0000010000DA
S11300B05F0112000200001C01430003000018014C
S11300C00401030904FA001C02030904E4001403F4
S11300D0030904D6000C0C03310032003300340051
S11300E035000000140354006500730074004200DE
S11300F065006E006300680000001C034C00610092
S113010075007200690020004D00690068006B00F2
S113011065006C0073000000040309040902430035
S1130120020100C03209040000010202010005249A
S1130130001001052401010104240206052406001F
S1130140010705820310004009040100020A0000AF
S11301500007050302400000070584024000001266
S113016001000202000010C0167A0400010102031B
S1130170010001C1120180360181360011241FBE25
S1130180CFEFD5E0DEBFCDBF11E0A0E0B1E0EAE102
S1130190F6E102C005900D92AC39B107D9F722E01F
S11301A0ACE9B1E001C01D92AA35B207E1F70E94A3
S11301B029010C940B0B0C940000559885E090E0F9
S11301C0FC013197F1F7539A0197F1F70895539A87
S11301D085E090E0FC013197F1F75598E3E0F0E019
S11301E03197F1F753980197F1F7089598E043E0B8
S11301F050E025E030E0559AFA013197F1F7882371
S113020014F4539801C0539AF9013197F1F75598B2
S1130210F9013197F1F74D9BFECF880F915059F7B3
S1130220559A83E090E00197F1F7539885E090E0C8
S1130230FC013197F1F75598FC013197F1F729B199
S1130240559A0197F1F723FB882780F991E08927D4
S11302500895E1E6F0E080E8808310825098589A8F
S1130260519A599852986E9A489B04C010929C01D6
S1130270769A03C081E080939C010E9452052FEF7F
S113028089E698E1215080409040E1F700C00000E9
S113029086E191E00E94FC0785E291E00E94FC0760
S11302A08CE291E00E94FC070E94AE036AE082E0C7
S11302B00E9480048AE091E00E94210580919C01C3
S11302C0811103C085E091E002C080E091E00E94CA
S11302D0100585E291E00E94FC07C12CD12C0F2E61
S11302E0FFE82F2EF1E03F2EF02DC7EAD1E003E422
S11302F011E0EC2EFD2E0F2EF4E66F2E712CF02D56
S11303000F2EF3E68F2EF1E09F2EF02D0F2EFFE43B
S11303104F2EF1E05F2EF02D61C180919C0181117F
S113032078C089EF91E00E944F0488E391E00E9435
S1130330FC070F2EF9EFCF2EF1E0DF2EF02DA12CCC
S1130340B12CD6018D916D011F928F93BF92AF9204
S11303501F930F93DF93CF930E9433088E2D9F2D0D
S11303600E94FC07FFEFAF1ABF0A8DB79EB708962D
S11303700FB6F8949EBF0FBE8DBF9AE0A916B104C4
S113038001F78091FA01813081F5E9EFF1E0838191
S113039090E0982F88272281820F911D9093A201CB
S11303A08093A101258130E0322F22274481240F3C
S11303B0311D30930802209307023F932F939F939C
S11303C08F935F924F92DF93CF930E943308CE01B5
S11303D00E94FC07EDB7FEB738960FB6F894FEBF3F
S11303E00FBEEDBFC12CD12CF9C01F928F939F92E9
S11303F08F92DF93CF930E943308CE010E94FC07B3
S11304000F900F900F900F900F900F90C12CD12C44
S1130410E5C089EF91E00E944F048091000284FFBF
S11304202CC088E391E00E94FC070F2EF9EFCF2E39
S1130430F1E0DF2EF02DA12CB12CD6018D916D01B0
S11304401F928F93BF92AF921F930F93DF93CF931B
S11304500E9433088E2D9F2D0E94FC07FFEFAF1AD8
S1130460BF0A8DB79EB708960FB6F8949EBF0FBE0D
S11304708DBF98E0A916B10401F788E391E00E94CA
S1130480FC070F2EF9EFCF2EF1E0DF2EF02DA12C7B
S1130490B12CD6018D916D011F928F93BF92AF92B3
S11304A01F930F93DF93CF930E9433088E2D9F2DBC
S11304B00E94FC07FFEFAF1ABF0A8DB79EB70896DC
S11304C00FB6F8949EBF0FBE8DBF96E0A916B10477
S11304D001F72091FC0181EA820F8B3008F453C0AC
S11304E030E00F2EF9EFCF2EF1E0DF2EF02DD60104
S11304F01596AC90B12CC301821B930BAC01440F35
S1130500551F440F551F480F591F4A9DC0014B9D4D
S1130510900D5A9D900D1124B3010E940B08FB010C
S11305207093A2016093A10124563109B901660FA9
S1130530771F660F771F260F371F3093080220930B
S11305400702D60117968C9184FF25C08091FB0188
S1130550A301481B5109A49EC001A59E900DB49E01
S1130560900D112466E470E00E940B08E60FF71F5B
S1130570F093A201E093A101260F371F30930802E4
S11305802093070208C01092A2011092A1011092B8
S11305900802109207028091F90190E04091A101B4
S11305A05091A201489F9001499F300D589F300DF2
S11305B011243093A2012093A1014091070250918C
S11305C00802489F9001499F300D589F300D112417
S11305D03093080220930702C12CD12C0E94E70417
S11305E081119BCE5601BFEFAB1ABB0AE8ECCE16C5
S11305F0D1046CF48091A1019091A2010E94800326
S113060080910702909108020E94970308C080E03D
S113061090E00E94800380E090E00E9497030E9493
S11306209A05D82E882371F160E485E192E00E9456
S1130630D007803439F5809115028F3361F4E5E7F2
S1130640F1E0DE018AE101900D928A95E1F7CE0195
S11306500E94FC0717C085E192E09F938F931F923D
S1130660DF923F922F92DF93CF930E943308CE0103
S11306700E94FC078DB79EB708960FB6F8949EBFEC
S11306800FBE8DBFAFE3BCE91197F1F700C00000C6
S11306906501A4CF1F920F920FB60F9211248F936E
S11306A09F9380919F019091A00101969093A00146
S11306B080939F019EB180E489278EB99F918F9189
S11306C00F900FBE0F901F9018951F920F920FB6A8
S11306D00F9211248F939F9380919D0190919E017D
S11306E0019690939E0180939D019EB180E4892799
S11306F08EB99F918F910F900FBE0F901F901895F8
S1130700CF93DF93C82FD92F0E94DD0082E50E948A
S1130710F60080E00E94F6008D2F0E94F6008C2FD8
S11307200E94F6000E94E700DF91CF910895CF93D5
S1130730DF93C82FD92F0E94DD0084E50E94F600C4
S113074080E00E94F6008D2F0E94F6008C2F0E94FC
S1130750F6000E94E700DF91CF9108950E943105D1
S113076080E00E94370581E00E943D050895EF92E4
S1130770FF921F93CF93DF93E82E80E00E944305FE
S1130780C7E0D0E010E0F12C97010C2E02C03595A3
S113079027950A94E2F720FF04C081E00E944905EE
S11307A003C080E00E94490581E00E9443058AE17C
S11307B08A95F1F700C0110F0E944F058111116055
S11307C080E00E9443058AE18A95F1F700C02197F1
S11307D0D8F6812FDF91CF911F91FF90EF9008956C
S11307E0CF9380E00E943D058FEF0E94B703C82F8E
S11307F081E00E943D058C2FCF910895EF92FF92E6
S11308000F931F93CF93DF934423A1F0EC01062FA2
S1130810172F4150E42EF12C2FEFE21AF20AE80EC2
S1130820F91E89910E94B703F80181938F01CE15B7
S1130830DF05B9F7DF91CF911F910F91FF90EF90F2
S113084008950F931F93CF93DF93662371F0EC0108
S11308506150062F10E00F5F1F4F080F191F899179
S11308600E94B703C017D107D1F7DF91CF911F9131
S11308700F910895CF93DF93C82FD62F80E00E9465
S11308803D058C2F8F7180620E94B7038D2F0E94CB
S1130890B70381E00E943D05DF91CF910895CF9386
S11308A0DF93EC0180E00E943D0581E60E94B703DE
S11308B040915902BE01CE010E94FE0381E00E94D4
S11308C03D0560E487E00E943A04DF91CF910895EA
S11308D080E00E943D0582EE0E94B70381E00E9401
S11308E03D0560E787E00E943A0480E00E943705F6
S11308F06BE080E00E943A0481E00E94370508958D
S113090060935902682F85E00E943A0460E081E117
S11309100E943A046091590282E10E943A0460E024
S113092083E10E943A0460E084E10E943A0460E0BA
S113093085E10E943A0460E086E10E943A0466E29E
S113094086E00E943A046CE080E00E943A0463E08E
S113095081E00E943A0463E082E00E943A046FE47A
S113096084E00E943A0460E08CE10E943A040E9410
S1130970680408950F931F93CF93DF93082FEB011F
S1130980142F80E00E943D05802F8F710E94B703D1
S1130990412FBE01CE010E94FE0381E00E943D056D
S11309A0DF91CF911F910F910895CF93DF931F9201
S11309B0CDB7DEB741E0BE016F5F7F4F87E10E9494
S11309C0BA04898181700F90DF91CF9108950E94BC
S11309D0F00386FD07C00E94D50491E0882319F036
S11309E090E001C091E0892F08950F931F93CF9356
S11309F0DF93C82F8B01D42F80E00E943D058C2FFC
S1130A008F7180620E94B7036D2FC8010E94210478
S1130A1081E00E943D05DF91CF911F910F910895D0
S1130A20CF93DF93EC0180E00E94370545E0BE01DF
S1130A308BE00E94F50481E00E943705DF91CF919D
S1130A400895CF93DF93EC0145E0BC018AE00E9456
S1130A50F50445E0BE0180E10E94F504DF91CF91E9
S1130A600895229A209A239A219A279808958823F0
S1130A7011F02A9A08952A980895882311F0289A43
S1130A80089528980895882311F02B9A08952B9897
S1130A900895882311F0299A08952998089583B117
S1130AA08078089581E08093D70080EA8093D8000D
S1130AB082E189BD09B400FEFDCF80E98093D800AE
S1130AC01092E0001092A6011092A3018CE0809392
S1130AD0E200789408952FB7F8948091A6018111CB
S1130AE004C02FBF8FEF9FEF089583E08093E90048
S1130AF08091E80085FD12C082FD04C00BC082FD18
S1130B0004C008C0E8EEF0E09BE69083808185FF96
S1130B10F6CF04C02FBF8FEF9FEF08958091F100AF
S1130B209091E80095FD03C09BE69093E8002FBFE9
S1130B3090E008959FB7F8948091A601882389F0E6
S1130B4083E08093E9008091F20081110BC0209131
S1130B50E80022FF07C025FD05C02BE62093E8002E
S1130B6001C080E09FBF0895CF93DF939091A601C9
S1130B70992309F44CC09FB7F89424E02093E9002A
S1130B802091A401222349F02091E80025FD03C00F
S1130B909FBF8FEF41C01092A4013091E400375EF3
S1130BA02091E80025FD24C09FBF9091E400931795
S1130BB081F09091A601992361F1A9EEB0E044E09F
S1130BC0E8EEF0E0C4EED0E00DC09FBF988193132F
S1130BD005C081E08093A4018FEF1EC09091A6010F
S1130BE09923C9F09FB7F8944C93208125FFEDCF4A
S1130BF08093F1008091E80085FD03C08AE380932F
S1130C00E80085E08093A5019FBF80E005C08FEFD9
S1130C1003C08FEF01C08FEFDF91CF9108951F9232
S1130C200F920FB60F9211248F939F93EF93FF931C
S1130C30E1EEF0E08081108283FF11C01092E900A0
S1130C4091E09093EB001092EC0092E19093ED0010
S1130C5098E09093F0001092A6011092A30182FFF5
S1130C6013C08091A601882379F08091A50188237F
S1130C7059F081508093A501811106C084E08093CE
S1130C80E9008AE38093E800FF91EF919F918F91AF
S1130C900F900FBE0F901F9018951F920F920FB6D2
S1130CA00F9211240F931F932F933F934F935F93AE
S1130CB06F937F938F939F93AF93BF93CF93DF9360
S1130CC0EF93FF931092E9008091E80083FF4CC1F9
S1130CD0E1EFF0E0608180812081908130E0392B68
S1130CE04081908150E0592B7081C08192EF9093A4
S1130CF0E800863009F058C004C081E28093EB001C
S1130D003AC166E08CEA90E0FC01A591B4912A17FF
S1130D103B0711F0079623C0FC013296A591B491CC
S1130D204A175B0711F007961AC0FC0134964591E7
S1130D305491FC0136962491872F90E09C2B8F3F91
S1130D40910519F010F08FEF90E0821708F4282F26
S1130D50A8EEB0E070E16EEFC1EFD0E003C06150E7
S1130D6099F6CBCF8C91982F9570E1F382FD03C156
S1130D70322F213108F0372F332309F4F9C0FA0157
S1130D80832F94919883815031968111FACF8FEFFC
S1130D90830F90E00196480F591F231B6C93211178
S1130DA0E1CF3031F9F2E7C0853061F48EEF809302
S1130DB0E800E8EEF0E0808180FFFDCF206820931A
S1130DC0E300D9C0893009F035C06111CDC020934A
S1130DD0A6011092A3011092A5018EEF8093E80062
S1130DE081E021E731E0C9EED0E0ABEEB0E00CEEFB
S1130DF010E06DEE70E08883A9014F5F5F4FF90149
S1130E0094919C93992361F0FA014491F8014083F1
S1130E10F901329694912D5F3F4FFB01908301C0FD
S1130E209A018F5F853039F7EAEEF0E08EE1808336
S1130E301082A1C0883081F4603809F095C0E8EED2
S1130E40F0E0808180FFFDCF8091A6018093F100C6
S1130E508EEF8093E8008FC08132B9F4613A09F0D3
S1130E6083C0E8EEF0E0808180FFFDCFEFE0F1E0A9
S1130E7026E131E0A1EFB0E081918C93E217F30712
S1130E80D9F78EEF8093E80076C08032D1F46132D6
S1130E9009F06AC0E8EEF0E0808182FFFDCFEFE068
S1130EA0F1E026E131E0A1EFB0E08C918193E2170B
S1130EB0F307D9F7E8EEF0E08BEF80838EEF8083C1
S1130EC05AC0823271F4613209F04EC02093A301FA
S1130ED0E8EEF0E0808180FFFDCF8EEF8093E800A4
S1130EE04AC081111AC0E8EEF0E0808180FFFDCF96
S1130EF0623851F4E9EEF0E040838091EB0085FB29
S1130F00882780F9108201C080E0E1EFF0E080835F
S1130F1010828EEF8093E8002EC0982F9D7F913031
S1130F2019F5623009F5232BF9F44F779FEF940FED
S1130F309430D0F49EEF9093E8004093E90083301E
S1130F4021F481E28093EB0016C089E18093EB00E9
S1130F5081E090E002C0880F991F4A95E2F7EAEE1B
S1130F60F0E08083108207C081E28093EB0003C02D
S1130F706C932111F7CEFF91EF91DF91CF91BF9147
S1130F80AF919F918F917F916F915F914F913F911D
S1130F902F911F910F910F900FBE0F901F901895D6
S1130FA0EF92FF920F931F93CF93DF93C62F8C0181
S1130FB0D0E012C00E946B058D3011F08A3019F414
S1130FC0F701108211C090EE980F9F3550F4F7018D
S1130FD080830F5F1F4FDF5F7801DC13EBCFDC2FC3
S1130FE002C0DC1738F3CD2F8C2FDF91CF911F91E6
S1130FF00F91FF90EF900895CF93DF93EC018881D8
S1131000882331F021960E94B40589918111FBCF88
S1131010DF91CF91089597FB072E16F4009407D023
S113102077FD09D00E941F0807FC05D03EF4909577
S113103081959F4F0895709561957F4F0895AA1BE0
S1131040BB1B51E107C0AA1FBB1FA617B70710F0AF
S1131050A61BB70B881F991F5A95A9F780959095E1
S1131060BC01CD010895AEE0B0E0E9E3F8E00C94F2
S1131070E20A0D891E8986E08C831A8309838FEF27
S11310809FE79E838D83AE01475E5F4F6F89788DA6
S1131090CE0101960E9456082F813885F801E20F8F
S11310A0F31F10822E96E4E00C94FE0AACE0B0E04C
S11310B0ECE5F8E00C94D40A7C016B018A01FC0194
S11310C017821682838181FFBDC1CE0101964C0136
S11310D0F7019381F60193FD859193FF81916F014F
S11310E0882309F4ABC1853239F493FD859193FFCC
S11310F081916F01853229F4B70190E00E943E0A84
S1131100E7CF512C312C20E02032A0F48B3269F04F
S113111030F4803259F0833269F420612CC08D326E
S113112039F0803339F4216026C02260246023C062
S1131130286021C027FD27C030ED380F3A3078F4FD
S113114026FF06C0FAE05F9E300D1124532E13C013
S11311508AE0389E300D1124332E20620CC08E326A
S113116021F426FD6BC1206406C08C3611F420687E
S113117002C0883641F4F60193FD859193FF819175
S11311806F018111C1CF982F9F7D9554933028F41E
S11311900C5F1F4FFFE3F9830DC0833631F08337B3
S11311A071F0833509F05BC022C0F8018081898326
S11311B00E5F1F4F44244394512C540115C0380131
S11311C0F2E06F0E711CF801A080B18026FF03C00D
S11311D0652D70E002C06FEF7FEFC5012C870E9480
S11311E0330A2C0183012C852F77222E17C0380156
S11311F0F2E06F0E711CF801A080B18026FF03C0DD
S1131200652D70E002C06FEF7FEFC5012C870E944F
S1131210280A2C012C852068222E830123FC1BC064
S1131220832D90E048165906B0F4B70180E290E0AF
S11312300E943E0A3A94F4CFF50127FC859127FEDB
S113124081915F01B70190E00E943E0A31103A9407
S1131250F1E04F1A51084114510471F7E5C0843686
S113126011F0893639F5F80127FF07C060817181D3
S1131270828193810C5F1F4F08C060817181072EAA
S1131280000C880B990B0E5F1F4F2F76722E97FF61
S113129009C090958095709561957F4F8F4F9F4FB2
S11312A02068722E2AE030E0A4010E94760AA82E5B
S11312B0A81844C0853729F42F7EB22E2AE030E0E6
S11312C025C0F22FF97FBF2E8F36C1F018F4883570
S11312D079F0B4C0803719F0883721F0AFC02F2FD0
S11312E02061B22EB4FE0DC08B2D8460B82E09C0CF
S11312F024FF0AC09F2F9660B92E06C028E030E074
S113130005C020E130E002C020E132E0F801B7FE80
S113131007C060817181828193810C5F1F4F06C079
S11313206081718180E090E00E5F1F4FA4010E94F4
S1131330760AA82EA818FB2DFF777F2E76FE0BC009
S1131340372D3E7FA51450F474FE0AC072FC08C009
S1131350372D3E7E05C0BA2C372D03C0BA2C01C0F0
S1131360B52C34FF0DC0FE01EA0DF11D80818033E0
S113137011F4397E09C032FF06C0B394B39404C09B
S1131380832F867809F0B39433FD13C030FF06C071
S11313905A2CB31418F4530C5B18B32CB31468F41C
S11313A0B70180E290E03C870E943E0AB3943C85FA
S11313B0F5CFB31410F43B1801C0312C34FF12C024
S11313C0B70180E390E03C870E943E0A3C8532FFEF
S11313D017C031FD03C088E790E002C088E590E0C3
S11313E0B7010CC0832F867859F031FF02C08BE21D
S11313F001C080E237FD8DE2B70190E00E943E0A11
S1131400A51438F4B70180E390E00E943E0A5A9490
S1131410F7CFAA94F401EA0DF11D8081B70190E0A1
S11314200E943E0AA110F5CF332009F451CEB70132
S113143080E290E00E943E0A3A94F6CFF70186815A
S1131440978102C08FEF9FEF2C96E2E10C94F00A93
S1131450FC010590615070400110D8F7809590957B
S11314608E0F9F1F0895FC01615070400190011080
S1131470D8F7809590958E0F9F1F08950F931F9313
S1131480CF93DF93FB01238121FD03C08FEF9FEFF7
S113149028C022FF16C04681578124813581421716
S11314A0530744F4A081B1819D012F5F3F4F3183E5
S11314B020838C93268137812F5F3F4F3783268388
S11314C010C0EB01092F182F0084F185E02D099538
S11314D0892BE1F68E819F8101969F838E83812FD4
S11314E0902FDF91CF911F910F910895FA01AA27B0
S11314F0283051F1203181F1E8946F936E7F6E5F53
S11315007F4F8F4F9F4FAF4FB1E03ED0B4E03CD000
S1131510670F781F891F9A1FA11D680F791F8A1FE3
S1131520911DA11D6A0F711D811D911DA11D20D04A
S113153009F468943F912AE0269F11243019305D04
S11315403193DEF6CF010895462F4770405D4193F5
S1131550B3E00FD0C9F7F6CF462F4F70405D4A3342
S113156018F0495D31FD4052419302D0A9F7EACF0A
S1131570B4E0A6959795879577956795BA95C9F739
S113158000976105710508959B01AC010A2E06942C
S11315905795479537952795BA95C9F7620F731FE5
S11315A0841F951FA01D08952F923F924F925F9222
S11315B06F927F928F929F92AF92BF92CF92DF925F
S11315C0EF92FF920F931F93CF93DF93CDB7DEB7C4
S11315D0CA1BDB0B0FB6F894DEBF0FBECDBF099458
S11315E02A88398848885F846E847D848C849B84AF
S11315F0AA84B984C884DF80EE80FD800C811B81BD
S1131600AA81B981CE0FD11D0FB6F894DEBF0FBEEB
S10D1610CDBFED010895F894FFCF5B
S113161AE7E7E7E7E7E7E7E7E7E1E7E7E7E7E70039
S113162AE10000000008696E6974206D6F746F72BE
S113163A732E2E2E00446F6E65210A00696E69743A
S113164A206E72662E2E2E00526563656976656475
S113165A3A0A0025642E2076616C3D25640A006BE3
S113166A696972757365643A202564206A61202564
S113167A640A00756E6B6E6F776E20747970653AC2
S113168A2025640A00706F6E672028726F626F7477
S113169A20312C204E52463A20307845310A0067D0
S10F16AA6F74282564293A2025730A0077
S9030000FC
