S01600004943445F6D61696E5F726F626F742E73726563B5
S11300000C94BE000C94DB000C94DB000C94DB001D
S11300100C94DB000C94DB000C94DB000C94DB00F0
S11300200C94DB000C94DB000C9493070C94D10724
S11300300C94DB000C94DB000C94DB000C94DB00D0
S11300400C94DB000C94DB000C94DB000C94DB00C0
S11300500C94DB000C94D4040C94DB000C94DB00B3
S11300600C94DB000C94DB000C94DB000C94DB00A0
S11300700C94DB000C94DB000C94DB000C94DB0090
S11300800C94DB000C94DB000C94DB000C94DB0080
S11300900C94DB000C94DB000C94DB000C94DB0070
S11300A00C94DB000C94DB000C94DB0000010000DA
S11300B05F0112000200001C01430003000018014C
S11300C00401030904FA001C02030904E4001403F4
S11300D0030904D6000C0C03310032003300340051
S11300E035000000140354006500730074004200DE
S11300F065006E006300680000001C034C00610092
S113010075007200690020004D00690068006B00F2
S113011065006C0073000000040309040902430035
S1130120020100C03209040000010202010005249A
S1130130001001052401010104240206052406001F
S1130140010705820310004009040100020A0000AF
S11301500007050302400000070584024000001266
S113016001000202000010C0167A0400010102031B
S1130170010001C1120180360181360011241FBE25
S1130180CFEFDAE0DEBFCDBF12E0A0E0B1E0ECEDEE
S1130190F8E102C005900D92A632B107D9F722E02A
S11301A0A6E2B2E001C01D92A739B207E1F70E94AE
S11301B023040C946C0C0C94000085B7806885BFF4
S11301C085B7806885BF83EF80BB8FEF81BB84B127
S11301D0806684B98AB180638AB93E9A8AB1806C98
S11301E08AB95E9A5F98089582E084BD95E095BDD2
S11301F09AEF97BD80936E0016BCE0E8F0E0808132
S1130200826A8083E1E8F0E080818B61808387E803
S113021093E190938700809386000895882381F06A
S1130220611102C0899A01C08998411102C0889A5B
S113023001C08898211102C08C9A08958C98089561
S1130240611102C08E9A01C08E98411102C08D9A2C
S113025001C08D98211102C08F9A08958F98089536
S1130260CF93C82F82FB222720F981FB442740F932
S1130270682F617080E00E940E01C5FB222720F9DF
S1130280C4FB442740F9C3FB662760F981E00E9460
S11302900E01CF910895CF93DF93EC0188818823D9
S11302A031F021960E94380789918111FBCFDF91AB
S11302B0CF910895EF92FF920F931F93CF93DF9303
S11302C0C62F8C01D0E012C00E94EF068D3011F0D1
S11302D08A3019F4F701108211C090EE980F9F35FF
S11302E050F4F70180830F5F1F4FDF5F7801DC1349
S11302F0EBCFDC2F02C0DC1738F3CD2F8C2FDF912E
S1130300CF911F910F91FF90EF900895E8ECF0E0EA
S1130310908195FFFDCF8093CE0008951092CD007B
S113032083E38093CC0088E98093C90086E08093BE
S1130330CA000895EF92FF920F931F93CF93DF9318
S11303408C017C01C0E0D0E006C0F70181917F01FF
S11303500E9486012196F80101900020E9F7319767
S1130360E01BF10BCE17DF0780F3DF91CF911F91D4
S11303700F91FF90EF900895EF92FF920F931F93C8
S1130380CF93DF93EC01062F80E090E00E941B0CDA
S1130390182F2881293689F58981843609F090C17E
S11303A0CE0102960E945409C82FD92F682F80E0ED
S11303B090E00E94230CDF93CF931F921F938FE151
S11303C091E09F938F938CE292E09F938F930E948E
S11303D07A098DB79EB708960FB6F8949EBF0FBEE4
S11303E08DBF002329F08CE292E00E944B0124C2CD
S11303F08CE292E00E949A011FC22F33F1F41F9203
S11304008F938BE391E09F938F938CE292E09F9381
S11304108F930E947A090F900F900F900F900F9076
S11304200F90002329F08CE292E00E944B0104C259
S11304308CE292E00E949A01FFC12037C1F48981C5
S11304408F3609F03DC18A818E3609F039C18B811E
S1130450873609F035C1002329F08BE491E00E942E
S11304604B01EAC18BE491E00E949A01E5C1243773
S1130470E1F580E20E9430012196DF93CF9384E07E
S113048092E09F938F938CE292E09F938F930E94CC
S11304907A090F900F900F900F900F900F90011109
S11304A012C08CE292E00E944B0189E0E0E5F1E0A9
S11304B0ACE2B2E001900D928A95E1F78CE292E011
S11304C00E949A01B9C18CE292E00E949A0189E0EB
S11304D0E0E5F1E0ACE2B2E001900D928A95E1F73B
S11304E08CE292E00E944B01A7C12537E1F5898196
S11304F0813331F0823339F46894FF24F1F804C075
S1130500FF24F39401C0F12C8A81833709F0F6C0EB
S1130510CE0103960E9454099F938F931F92FF92DA
S113052089E591E09F938F938CE292E09F938F9360
S11305300E947A098CE292E00E949A0182E691E09C
S11305400E944B018CE292E00E944B0186E591E00F
S11305500E944B018DB79EB708960FB6F8949EBFC4
S11305600FBE8DBFCBC02C3609F0A4C08A818C3657
S1130570F9F4CE0103960E945409809316019093D6
S113058017019F938F9381E791E09F938F938CE260
S113059092E09F938F930E947A098CE292E00E94EA
S11305A04B010F900F900F900F900F900F90A6C0DB
S11305B08237F9F4CE0103960E9454098093140102
S11305C0909315019F938F938CE791E09F938F9362
S11305D08CE292E09F938F930E947A098CE292E0DE
S11305E00E944B010F900F900F900F900F900F905F
S11305F085C0833709F082C08981813329F48AE078
S113060091E00E94A50606C0823321F485E091E0C2
S11306100E94A506ECE6F2E087EE808381E0818308
S11306209091160180911701928383839091140114
S113063080911501948385831682CF010E94070659
S11306400E942E058111FCCF0E943605F82E0E94CF
S11306506706E82E8FE091E00E94A5060E94AC0593
S113066091E0F91205C087E891E00E944B010BC0AC
S1130670F11005C087E991E00E944B0104C087EAAC
S113068091E00E944B011F92EF9284EC91E09F93C2
S11306908F938CE292E09F938F930E947A098CE26D
S11306A092E00E944B010F900F900F900F900F90CB
S11306B00F9024C030E0205331092A303105F0F086
S11306C0DF93CF9382ED91E09F938F938CE292E03E
S11306D09F938F930E947A090F900F900F900F9021
S11306E00F900F90002329F08CE292E00E944B01BE
S11306F0A3C08CE292E00E949A019EC0CE010E94A7
S11307005409212F30E02817390709F095C0888152
S11307108A3349F09E012F5F3F4FE9012F5F3F4F1E
S113072098819A33D1F79E012F5F3F4F8981873695
S113073051F58A81823609F05EC08CB186FB882728
S113074080F91F928F931F921F9380EE91E09F93E5
S11307508F938CE292E09F938F930E947A098DB7D6
S11307609EB708960FB6F8949EBF0FBE8DBF0023A8
S113077029F08CE292E00E944B015EC08CE292E090
S11307800E949A0159C08C3669F48A81853699F59C
S11307908B81843681F5CE0104960E9454090E940F
S11307A030014AC0803739F58A81893621F58B8139
S11307B08E3609F58C818736F1F41F921F938EEEE5
S11307C091E09F938F938CE292E09F938F930E948A
S11307D07A090F900F900F900F900F900F900023B5
S11307E029F08CE292E00E944B0126C08CE292E058
S11307F00E949A0121C03F932F931F921F9389EF68
S113080091E09F938F938CE292E09F938F930E9449
S11308107A098DB79EB708960FB6F8949EBF0FBE9F
S11308208DBF002329F08CE292E00E944B0104C0AA
S11308308CE292E00E949A01DF91CF911F910F9177
S1130840FF90EF900895CF93DF93CDB7DEB7609715
S11308500FB6F894DEBF0FBECDBFE1E6F0E080E84E
S1130860808310820E94DD000E94F4000E94D6065C
S11308702FEF81EE94E0215080409040E1F700C0DA
S113088000000E948E01789480E090E00E941B0C8E
S11308901F928F9388E092E09F938F938CE292E073
S11308A09F938F930E947A098CE292E00E944B01FD
S11308B08CE292E00E949A010E94DE046AE082E0E7
S11308C00E94C4058FE091E00E94A50680E091E0BB
S11308D00E9494060F900F900F900F900F900F901E
S11308E00F2EF6E7CF2EF2E0DF2EF02D0F2EFBE1D8
S11308F0EF2EF2E0FF2EF02D0CE212E00F2EF8ECBA
S1130900AF2EF02D90912702992399F0109227028F
S1130910DF92CF92FF92EF921F930F930E947A0976
S1130920C8010E944B010F900F900F900F900F90F1
S11309300F900E941E078823D1F060E1CE0101963A
S11309400E945A01B82E20E040E061E081E00E945C
S11309500E0120E1B2120BC021E040E060E081E032
S11309600E940E0161E0CE0101960E94BC019091AB
S113097026029F5F993C18F49093260207C0A09228
S1130980260204C08CE692E00E9493050E94590658
S11309908111F8CF8FEF91EE24E0815090402040F8
S11309A0E1F700C00000AECF1F920F920FB60F9276
S11309B011240F900FBE0F901F9018950E94B5063A
S11309C080E00E94BB0681E00E94C1060895EF9278
S11309D0FF921F93CF93DF93E82E80E00E94C70617
S11309E0C7E0D0E010E0F12C97010C2E02C0359541
S11309F027950A94E2F720FF04C081E00E94CD0607
S1130A0003C080E00E94CD0681E00E94C7068AE10F
S1130A108A95F1F700C0110F0E94D306811111606D
S1130A2080E00E94C7068AE18A95F1F700C0219709
S1130A30D8F6812FDF91CF911F91FF90EF90089509
S1130A40CF9380E00E94C1068FEF0E94E704C82F75
S1130A5081E00E94C1068C2FCF9108950E94200549
S1130A60982F907381E009F080E008950E9420059A
S1130A7085FD04C084FD04C08FEF089580E00895CF
S1130A8081E00895EF92FF920F931F93CF93DF932A
S1130A904423A1F0EC01062F172F4150E42EF12C32
S1130AA02FEFE21AF20AE80EF91E89910E94E70478
S1130AB0F80181938F01CE15DF05B9F7DF91CF914E
S1130AC01F910F91FF90EF9008950F931F93CF9371
S1130AD0DF93662371F0EC016150062F10E00F5F85
S1130AE01F4F080F191F89910E94E704C017D107EF
S1130AF0D1F7DF91CF911F910F910895CF93DF9399
S1130B00C82FD62F80E00E94C1068C2F8F7180627F
S1130B100E94E7048D2F0E94E70481E00E94C10631
S1130B20DF91CF910895CF93DF93EC0180E00E9491
S1130B30C10681E60E94E70440919602BE01CE01FF
S1130B400E94420581E00E94C10660E487E00E94A1
S1130B507E05DF91CF91089580E00E94C10682EE68
S1130B600E94E70481E00E94C10660E787E00E94DA
S1130B707E0580E00E94BB066BE080E00E947E055B
S1130B8081E00E94BB06089560939602682F85E079
S1130B900E947E0560E081E10E947E0560919602DC
S1130BA082E10E947E0560E083E10E947E0560E0B0
S1130BB084E10E947E0560E085E10E947E0560E09C
S1130BC086E10E947E0566E286E00E947E056CE076
S1130BD080E00E947E0563E081E00E947E0563E080
S1130BE082E00E947E056FE484E00E947E0560E05E
S1130BF08CE10E947E050E94AC05089560E787E0C1
S1130C000E947E056AE080E00E947E050895CF93ED
S1130C10DF93EC0180E00E94BB060E94FE0580E0A9
S1130C200E94C10681EE0E94E70481E00E94C10691
S1130C3080E00E94C10680EA0E94E7046091960267
S1130C40CE010E94650581E00E94C10681E00E94F8
S1130C50BB06DF91CF9108950F931F93CF93DF933A
S1130C60082FEB01142F80E00E94C106802F8F71A2
S1130C700E94E704412FBE01CE010E94420581E09B
S1130C800E94C106DF91CF911F910F910895CF93D8
S1130C90DF931F92CDB7DEB741E0BE016F5F7F4F98
S1130CA087E10E942C06898181700F90DF91CF919A
S1130CB008950E94200586FD07C00E94470691E022
S1130CC0882319F090E001C091E0892F0895CF9313
S1130CD0DF931F92CDB7DEB741E0BE016F5F7F4F58
S1130CE088E00E942C0689818F700F90DF91CF914C
S1130CF008950F931F93CF93DF93C82F8B01D42FA5
S1130D0080E00E94C1068C2F8F7180620E94E704EC
S1130D106D2FC8010E94650581E00E94C106DF9124
S1130D20CF911F910F910895CF93DF93EC0180E051
S1130D300E94BB0645E0BE018BE00E94790681E07B
S1130D400E94BB06DF91CF910895CF93DF93EC010E
S1130D5045E0BC018AE00E94790645E0BE0180E1DD
S1130D600E947906DF91CF9108956E9A209A219A74
S1130D70229A23980895882311F0769A08957698F4
S1130D800895882311F0289A0895289808958823AF
S1130D9011F0299A089529980895882311F02A9A20
S1130DA008952A98089583B18870089581E0809306
S1130DB0D70080EA8093D80082E189BD09B400FE9F
S1130DC0FDCF80E98093D8001092E00010922B02AE
S1130DD0109228028CE08093E200789408952FB753
S1130DE0F89480912B02811104C02FBF8FEF9FEFE5
S1130DF0089583E08093E9008091E80085FD12C0A6
S1130E0082FD04C00BC082FD04C008C0E8EEF0E01F
S1130E109BE69083808185FFF6CF04C02FBF8FEFC0
S1130E209FEF08958091F1009091E80095FD03C033
S1130E309BE69093E8002FBF90E008959FB7F89445
S1130E4080912B02882389F083E08093E9008091CC
S1130E50F20081110BC02091E80022FF07C025FD9C
S1130E6005C02BE62093E80001C080E09FBF0895F1
S1130E70CF93DF9390912B02992309F44CC09FB731
S1130E80F89424E02093E90020912902222349F0D8
S1130E902091E80025FD03C09FBF8FEF41C0109251
S1130EA029023091E400375E2091E80025FD24C03A
S1130EB09FBF9091E400931781F090912B029923A6
S1130EC061F1A9EEB0E044E0E8EEF0E0C4EED0E079
S1130ED00DC09FBF9881931305C081E080932902C0
S1130EE08FEF1EC090912B029923C9F09FB7F894FD
S1130EF04C93208125FFEDCF8093F1008091E80091
S1130F0085FD03C08AE38093E80085E080932A028C
S1130F109FBF80E005C08FEF03C08FEF01C08FEF4C
S1130F20DF91CF9108951F920F920FB60F92112463
S1130F308F939F93EF93FF93E1EEF0E08081108213
S1130F4083FF11C01092E90091E09093EB0010929E
S1130F50EC0092E19093ED0098E09093F0001092F1
S1130F602B021092280282FF13C080912B02882347
S1130F7079F080912A02882359F0815080932A02C3
S1130F80811106C084E08093E9008AE38093E8003D
S1130F90FF91EF919F918F910F900FBE0F901F9033
S1130FA018951F920F920FB60F9211240F931F934F
S1130FB02F933F934F935F936F937F938F939F935D
S1130FC0AF93BF93CF93DF93EF93FF931092E90016
S1130FD08091E80083FF4CC1E1EFF0E06081808103
S1130FE02081908130E0392B4081908150E0592B51
S1130FF07081C08192EF9093E800863009F058C068
S113100004C081E28093EB003AC166E08CEA90E090
S1131010FC01A591B4912A173B0711F0079623C050
S1131020FC013296A591B4914A175B0711F007961B
S11310301AC0FC01349645915491FC0136962491D2
S1131040872F90E09C2B8F3F910519F010F08FEFC4
S113105090E0821708F4282FA8EEB0E070E16EEF5C
S1131060C1EFD0E003C0615099F6CBCF8C91982F9B
S11310709570E1F382FD03C1322F213108F0372F3F
S1131080332309F4F9C0FA01832F94919883815092
S113109031968111FACF8FEF830F90E00196480FBC
S11310A0591F231B6C932111E1CF3031F9F2E7C0B2
S11310B0853061F48EEF8093E800E8EEF0E0808103
S11310C080FFFDCF20682093E300D9C0893009F068
S11310D035C06111CDC020932B02109228021092CA
S11310E02A028EEF8093E80081E021E731E0C9EE27
S11310F0D0E0ABEEB0E00CEE10E06DEE70E0888373
S1131100A9014F5F5F4FF90194919C93992361F07A
S1131110FA014491F8014083F901329694912D5FCC
S11311203F4FFB01908301C09A018F5F853039F7EF
S1131130EAEEF0E08EE180831082A1C0883081F471
S1131140603809F095C0E8EEF0E0808180FFFDCFC3
S113115080912B028093F1008EEF8093E8008FC082
S11311608132B9F4613A09F083C0E8EEF0E080819D
S113117080FFFDCFE8E1F1E02FE131E0A1EFB0E045
S113118081918C93E217F307D9F78EEF8093E800EF
S113119076C08032D1F4613209F06AC0E8EEF0E042
S11311A0808182FFFDCFE8E1F1E02FE131E0A1EFA2
S11311B0B0E08C918193E217F307D9F7E8EEF0E001
S11311C08BEF80838EEF80835AC0823271F4613258
S11311D009F04EC020932802E8EEF0E0808180FF01
S11311E0FDCF8EEF8093E8004AC081111AC0E8EE6B
S11311F0F0E0808180FFFDCF623851F4E9EEF0E049
S113120040838091EB0085FB882780F9108201C020
S113121080E0E1EFF0E0808310828EEF8093E800BD
S11312202EC0982F9D7F913019F5623009F5232B3C
S1131230F9F44F779FEF940F9430D0F49EEF90938E
S1131240E8004093E900833021F481E28093EB00CD
S113125016C089E18093EB0081E090E002C0880F22
S1131260991F4A95E2F7EAEEF0E08083108207C006
S113127081E28093EB0003C06C932111F7CEFF91C0
S1131280EF91DF91CF91BF91AF919F918F917F911A
S11312906F915F914F913F912F911F910F910F90FB
S11312A00FBE0F901F901895FC0188279927E8948A
S11312B021912032E9F3293010F02E30C8F32B327B
S11312C041F02D3239F4689404C00E947209820FEF
S11312D0911D219120532A30C0F31EF490958195DD
S11312E09F4F08957AE0979F902D879F802D910DB1
S11312F011240895AEE0B0E0E0E8F9E00C94430C6A
S11313000D891E8986E08C831A8309838FEF9FE7FA
S11313109E838D83AE01475E5F4F6F89788DCE01CA
S113132001960E949D092F813885F801E20FF31F71
S113133010822E96E4E00C945F0CACE0B0E0E3EA9B
S1131340F9E00C94350C7C016B018A01FC011782D5
S11313501682838181FFBDC1CE0101964C01F70144
S11313609381F60193FD859193FF81916F01882309
S113137009F4ABC1853239F493FD859193FF8191D2
S11313806F01853229F4B70190E00E94850BE7CF05
S1131390512C312C20E02032A0F48B3269F030F44F
S11313A0803259F0833269F420612CC08D3239F0D7
S11313B0803339F4216026C02260246023C0286071
S11313C021C027FD27C030ED380F3A3078F426FFCE
S11313D006C0FAE05F9E300D1124532E13C08AE03C
S11313E0389E300D1124332E20620CC08E3221F42D
S11313F026FD6BC1206406C08C3611F4206802C03F
S1131400883641F4F60193FD859193FF81916F0134
S11314108111C1CF982F9F7D9554933028F40C5F90
S11314201F4FFFE3F9830DC0833631F0833771F02A
S1131430833509F05BC022C0F801808189830E5F87
S11314401F4F44244394512C540115C03801F2E039
S11314506F0E711CF801A080B18026FF03C0652DBA
S113146070E002C06FEF7FEFC5012C870E947A0BFA
S11314702C0183012C852F77222E17C03801F2E02E
S11314806F0E711CF801A080B18026FF03C0652D8A
S113149070E002C06FEF7FEFC5012C870E946F0BD5
S11314A02C012C852068222E830123FC1BC0832D54
S11314B090E048165906B0F4B70180E290E00E942B
S11314C0850B3A94F4CFF50127FC859127FE819191
S11314D05F01B70190E00E94850B31103A94F1E06E
S11314E04F1A51084114510471F7E5C0843611F0C4
S11314F0893639F5F80127FF07C06081718182813F
S113150093810C5F1F4F08C060817181072E000C0E
S1131510880B990B0E5F1F4F2F76722E97FF09C011
S113152090958095709561957F4F8F4F9F4F206860
S1131530722E2AE030E0A4010E94BD0BA82EA81848
S113154044C0853729F42F7EB22E2AE030E025C02E
S1131550F22FF97FBF2E8F36C1F018F4883579F059
S1131560B4C0803719F0883721F0AFC02F2F206125
S1131570B22EB4FE0DC08B2D8460B82E09C024FF9A
S11315800AC09F2F9660B92E06C028E030E005C03F
S113159020E130E002C020E132E0F801B7FE07C0EC
S11315A060817181828193810C5F1F4F06C06081CD
S11315B0718180E090E00E5F1F4FA4010E94BD0B7B
S11315C0A82EA818FB2DFF777F2E76FE0BC0372D93
S11315D03E7FA51450F474FE0AC072FC08C0372D77
S11315E03E7E05C0BA2C372D03C0BA2C01C0B52CE1
S11315F034FF0DC0FE01EA0DF11D8081803311F42A
S1131600397E09C032FF06C0B394B39404C0832F5B
S1131610867809F0B39433FD13C030FF06C05A2C0A
S1131620B31418F4530C5B18B32CB31468F4B70157
S113163080E290E03C870E94850BB3943C85F5CF13
S1131640B31410F43B1801C0312C34FF12C0B7019D
S113165080E390E03C870E94850B3C8532FF17C0F5
S113166031FD03C088E790E002C088E590E0B7014F
S11316700CC0832F867859F031FF02C08BE201C081
S113168080E237FD8DE2B70190E00E94850BA5143E
S113169038F4B70180E390E00E94850B5A94F7CFA9
S11316A0AA94F401EA0DF11D8081B70190E00E9433
S11316B0850BA110F5CF332009F451CEB70180E298
S11316C090E00E94850B3A94F6CFF70186819781CA
S11316D002C08FEF9FEF2C96E2E10C94510CFC01B9
S11316E00590615070400110D8F7809590958E0F49
S11316F09F1F0895FC016150704001900110D8F7BC
S1131700809590958E0F9F1F08950F931F93CF93ED
S1131710DF93FB01238121FD03C08FEF9FEF28C0DE
S113172022FF16C046815781248135814217530711
S113173044F4A081B1819D012F5F3F4F3183208309
S11317408C93268137812F5F3F4F3783268310C0C8
S1131750EB01092F182F0084F185E02D0995892BC1
S1131760E1F68E819F8101969F838E83812F902F36
S1131770DF91CF911F910F910895FA01AA27283084
S113178051F1203181F1E8946F936E7F6E5F7F4F4A
S11317908F4F9F4FAF4FB1E03ED0B4E03CD0670FC6
S11317A0781F891F9A1FA11D680F791F8A1F911D19
S11317B0A11D6A0F711D811D911DA11D20D009F469
S11317C068943F912AE0269F11243019305D3193AB
S11317D0DEF6CF010895462F4770405D4193B3E094
S11317E00FD0C9F7F6CF462F4F70405D4A3318F03B
S11317F0495D31FD4052419302D0A9F7EACFB4E0EC
S1131800A6959795879577956795BA95C9F70097A3
S11318106105710508959B01AC010A2E0694579544
S1131820479537952795BA95C9F7620F731F841F9B
S1131830951FA01D0895F999FECF92BD81BDF89A18
S1131840992780B50895262FF999FECF92BD81BDC1
S1131850F89A019700B4021639F01FBA20BD0FB6EA
S1131860F894FA9AF99A0FBE08952F923F924F92E4
S11318705F926F927F928F929F92AF92BF92CF921C
S1131880DF92EF92FF920F931F93CF93DF93CDB725
S1131890DEB7CA1BDB0B0FB6F894DEBF0FBECDBF9D
S11318A009942A88398848885F846E847D848C846E
S11318B09B84AA84B984C884DF80EE80FD800C8177
S11318C01B81AA81B981CE0FD11D0FB6F894DEBF5A
S10F18D00FBECDBFED010895F894FFCFCA
S11318DCE7E7E7E7E7E7E7E7E7E2E7E7E7E7E1D7A3
S11318ECD7D7D7D70A000A0000E100000000083C53
S11318FC69645F6368616E6765645F66726F6D5F70
S113190C25645F746F5F25643E0A003C636F6E6EE2
S113191C65637465643A25643E0A00706F6E6700F3
S113192C3C73656E74213E0A0025643A7364256920
S113193C0A003C73656E745F746F5F756172743A00
S113194C003C736C62743A25643E0A003C73726208
S113195C743A25643E0A003C6D6573736167653A9D
S113196C6C6F73743E0A003C6D6573736167653A02
S113197C73656E743E0A00536F6D657468696E67A7
S113198C206973207265616C6C792077726F6E6755
S113199C212121003C7175616C6974793A25643E8E
S11319AC0A003C756E6B6E6F776E3A25733E0A00B7
S11319BC3C25643A62616C6C3A25643E0A003C2511
S11319CC643A706F6E673E0A0025643A756E6B6EEE
S11319DC6F776E3A25730A003C636F6E6E656374A1
S11319EC65645F69643A25643E0A003C7361696E00
S10919FC3A25733E0A00C7
S9030000FC
