S01600004943445F6D61696E5F726F626F742E73726563B5
S11300000C94BE000C94DB000C94DB000C94DB001D
S11300100C94DB000C94DB000C94DB000C94DB00F0
S11300200C94DB000C94DB000C94910A0C94CF0A22
S11300300C94DB000C94DB000C94DB000C94DB00D0
S11300400C94DB000C94DB000C94DB000C94DB00C0
S11300500C94DB000C94D2070C94DB000C94DB00B2
S11300600C94DB000C94DB000C94DB000C94DB00A0
S11300700C94DB000C94DB000C94DB000C94DB0090
S11300800C94DB000C94DB000C94DB000C94DB0080
S11300900C94DB000C94DB000C94DB000C94DB0070
S11300A00C94DB000C94DB000C94DB0000010000DA
S11300B05F0112000200001C01430003000018014C
S11300C00401030904FA001C02030904E4001403F4
S11300D0030904D6000C0C03310032003300340051
S11300E035000000140354006500730074004200DE
S11300F065006E006300680000001C034C00610092
S113010075007200690020004D00690068006B00F2
S113011065006C0073000000040309040902430035
S1130120020100C03209040000010202010005249A
S1130130001001052401010104240206052406001F
S1130140010705820310004009040100020A0000AF
S11301500007050302400000070584024000001266
S113016001000202000010C0167A0400010102031B
S1130170010001C1120180360181360011241FBE25
S1130180CFEFDAE0DEBFCDBF12E0A0E0B1E0E8E2FD
S1130190FFE102C005900D92A438B107D9F722E01F
S11301A0A4E8B2E001C01D92A73FB207E1F70E94A4
S11301B008050C94920F0C94000085B7806885BFE5
S11301C085B7806885BF83EF80BB8FEF81BB84B127
S11301D0806684B98AB180638AB93E9A8AB1806C98
S11301E08AB95E9A5F98089582E084BD95E095BDD2
S11301F09AEF97BD80936E0016BCE0E8F0E0808132
S1130200826A8083E1E8F0E080818B61808387E803
S113021093E190938700809386000895882381F06A
S1130220611102C0899A01C08998411102C0889A5B
S113023001C08898211102C08C9A08958C98089561
S1130240611102C08E9A01C08E98411102C08D9A2C
S113025001C08D98211102C08F9A08958F98089536
S1130260CF93C82F82FB222720F981FB442740F932
S1130270682F617080E00E940E01C5FB222720F9DF
S1130280C4FB442740F9C3FB662760F981E00E9460
S11302900E01CF910895CF93DF93EC0188818823D9
S11302A031F021960E94360A89918111FBCFDF91AA
S11302B0CF910895FF920F931F93CF93DF938C01F7
S11302C0F62E6623D9F0C0E0D0E00E94ED098D300F
S11302D011F08A3021F4F80110828F2D13C090EEB2
S11302E0980F9F3528F4F8018083DF5F0F5F1F4F5D
S11302F0C13039F0C150DF1540F301C0D0E08D2F7B
S113030001C08FEFDF91CF911F910F91FF9008955E
S1130310E8ECF0E0908195FFFDCF8093CE00089546
S11303201092CD0083E38093CC0088E98093C900C8
S113033086E08093CA000895EF92FF920F931F9373
S1130340CF93DF938C017C01C0E0D0E006C0F701BD
S113035081917F010E9488012196F801019000207B
S1130360E9F73197E01BF10BCE17DF0780F3DF913C
S1130370CF911F910F91FF90EF900895EF92FF920C
S11303800F931F93CF93DF93EC01062F80E090E04F
S11303900E94410F182F2881293689F589818436D6
S11303A009F073C2CE0102960E947A0CC82FD92F8D
S11303B0682F80E090E00E94490FDF93CF931F9253
S11303C01F9380E291E09F938F938CE892E09F9338
S11303D08F930E94A00C8DB79EB708960FB6F89421
S11303E09EBF0FBE8DBF002329F08CE892E00E94CF
S11303F04B0107C38CE892E00E949C0102C32F3397
S1130400F1F41F928F938CE391E09F938F938CE888
S113041092E09F938F930E94A00C0F900F900F90E7
S11304200F900F900F90002329F08CE892E00E9427
S11304304B01E7C28CE892E00E949C01E2C22037A3
S1130440C1F489818F3609F020C28A818E3609F081
S11304501CC28B81873609F018C2002329F08CE472
S113046091E00E944B01CDC28CE491E00E949C017A
S1130470C8C22437E1F580E20E9430012196DF935F
S1130480CF9383E292E09F938F938CE892E09F93C3
S11304908F930E94A00C0F900F900F900F900F90CD
S11304A00F90011112C08CE892E00E944B0189E088
S11304B0E1E5F1E0ACE8B2E001900D928A95E1F754
S11304C08CE892E00E949C019CC28CE892E00E941D
S11304D09C0189E0E1E5F1E0ACE8B2E001900D9225
S11304E08A95E1F78CE892E00E944B018AC2253795
S11304F0E1F58981813331F0823339F46894FF2442
S1130500F1F804C0FF24F39401C0F12C8A818337ED
S113051009F0D9C1CE0103960E947A0C9F938F9360
S11305201F92FF928AE591E09F938F938CE892E06B
S11305309F938F930E94A00C8CE892E00E949C01F0
S113054083E691E00E944B018CE892E00E944B010B
S113055088ED91E00E944B018DB79EB708960FB6C7
S1130560F8949EBF0FBE8DBFAEC12C3609F087C173
S11305708A81843709F065C0CE0103960E947A0C03
S1130580E82EF92E2981213329F48BE091E00E9491
S1130590A30906C0223321F486E091E00E94A30956
S11305A0ECECF2E087EE808382E081839091170186
S11305B08091180192838383909115018091160193
S11305C094838583E682F782CF010E9405090E9405
S11305D02C088111FCCF0E943408F82E0E94650972
S11305E0E82E80E191E00E94A3090E94AA0891E00C
S11305F0F91205C082E791E00E944B010BC0F11093
S113060005C082E891E00E944B0104C082E991E0B8
S11306100E944B011F92EF928FEA91E09F938F9378
S11306208CE892E09F938F930E94A00C8CE892E058
S11306300E944B010F900F900F900F900F900F900E
S113064042C18D3609F078C0CE0103960E947A0C1F
S11306507C01FF928F938DEB91E09F938F938CE8B5
S113066092E09F938F930E94A00C8CE892E00E94EA
S11306704B010F900F900F900F900F900F908DE201
S1130680E81681E0F8062CF088EC91E00E944B011A
S11306901AC18981813329F48BE091E00E94A30976
S11306A006C0823321F486E091E00E94A309ECECB9
S11306B0F2E087EE808383E08183E282F382CF01DC
S11306C00E9405090E942C088111FCCF0E94340865
S11306D0F82E0E946509E82E80E191E00E94A309AA
S11306E00E94AA0891E0F91205C082E791E00E94F5
S11306F04B010BC0F11005C082E891E00E944B0150
S113070004C082E991E00E944B011F92EF928FEAAC
S113071091E09F938F938CE892E09F938F930E9434
S1130720A00C8CE892E00E944B010F900F900F9068
S11307300F900F900F90C7C08C36F9F4CE0103963A
S11307400E947A0C80931701909318019F938F93C2
S11307508BED91E09F938F938CE892E09F938F931E
S11307600E94A00C8CE892E00E944B010F900F9025
S11307700F900F900F900F90A6C08237F9F4CE011E
S113078003960E947A0C80931501909316019F930F
S11307908F9386EE91E09F938F938CE892E09F93E2
S11307A08F930E94A00C8CE892E00E944B010F9062
S11307B00F900F900F900F900F9085C0833709F022
S11307C082C08981813329F48BE091E00E94A309DE
S11307D006C0823321F486E091E00E94A309ECEC88
S11307E0F2E087EE808381E081839091170180910C
S11307F0180192838383909115018091160194834B
S113080085831682CF010E9405090E942C0881115C
S1130810FCCF0E943408F82E0E946509E82E80E17E
S113082091E00E94A3090E94AA0881E0F81205C081
S113083082E791E00E944B010BC0F11005C082E8F1
S113084091E00E944B0104C082E991E00E944B01B7
S11308501F92EF928FEA91E09F938F938CE892E03E
S11308609F938F930E94A00C8CE892E00E944B010E
S11308700F900F900F900F900F900F9024C030E0C6
S1130880205331092A303105F0F0DF93CF9381EF03
S113089091E09F938F938CE892E09F938F930E94B3
S11308A0A00C0F900F900F900F900F900F900023BB
S11308B029F08CE892E00E944B01A3C08CE892E0FE
S11308C00E949C019EC0CE010E947A0C212F30E030
S11308D02817390709F095C088818A3349F09E01A9
S11308E02F5F3F4FE9012F5F3F4F98819A33D1F734
S11308F09E012F5F3F4F8981873651F58A81823669
S113090009F05EC08CB186FB882780F91F928F9313
S11309101F921F938FEF91E09F938F938CE892E047
S11309209F938F930E94A00C8DB79EB708960FB625
S1130930F8949EBF0FBE8DBF002329F08CE892E08F
S11309400E944B015EC08CE892E00E949C0159C059
S11309508C3669F48A81853699F58B81843681F5E4
S1130960CE0104960E947A0C0E9430014AC080375E
S113097039F58A81893621F58B818E3609F58C818A
S11309808736F1F41F921F938DE092E09F938F932B
S11309908CE892E09F938F930E94A00C0F900F908D
S11309A00F900F900F900F90002329F08CE892E0A5
S11309B00E944B0126C08CE892E00E949C0121C059
S11309C03F932F931F921F9388E192E09F938F93FD
S11309D08CE892E09F938F930E94A00C8DB79EB7F2
S11309E008960FB6F8949EBF0FBE8DBF002329F062
S11309F08CE892E00E944B0104C08CE892E00E94D3
S1130A009C01DF91CF911F910F91FF90EF9008957A
S1130A10CF93DF93CDB7DEB760970FB6F894DEBF00
S1130A200FBECDBFE1E6F0E080E8808310820E9433
S1130A30DD000E94F4000E94D4092FEF81EE94E0BF
S1130A40215080409040E1F700C000000E949001D6
S1130A50789480E090E00E94410F1F928F9387E288
S1130A6092E09F938F938CE892E09F938F930E94E0
S1130A70A00C8CE892E00E944B018CE892E00E946A
S1130A809C010E94DC076AE082E00E94C20880E1C7
S1130A9091E00E94A30981E091E00E94920920E084
S1130AA041E060E080E00E940E010F900F900F90F3
S1130AB00F900F900F900F2EFCE8EF2EF2E0FF2E18
S1130AC0F02D0F2EF0E56F2EF2E07F2EF02D5E2C30
S1130AD04F2C3E2C2F2C809187028823B9F0109242
S1130AE0870286ED92E09F938F938AE392E09F932F
S1130AF08F93FF92EF920E94A00CC7010E944B01BA
S1130B000F900F900F900F900F900F900E941C0A5F
S1130B10882329F120E040E061E081E00E940E0199
S1130B2060E1CE0101960E945A01182F20E041E0B5
S1130B3060E081E00E940E01103189F421E040E080
S1130B4060E081E00E940E0161E0CE0101960E9406
S1130B50BE0121E041E061E081E00E940E0180914C
S1130B6086028F5F893C18F48093860203C088EC68
S1130B7080938602992493946894882481F80F2E94
S1130B80FAE5AF2EF1E0BF2EF02D01C28CEC92E01D
S1130B900E9491082091CC02215E223008F4F7C112
S1130BA085E492E00E944B010F2EFCECCF2EF2E084
S1130BB0DF2EF02D00E010E0D6012D916D011F9283
S1130BC02F931F930F937F926F92FF92EF920E9445
S1130BD0A00C832D922D0E944B010F5F1F4F0FB667
S1130BE0F894DEBF0FBECDBF0630110529F7809102
S1130BF0D20280FF07C0909284028CE592E00E94AA
S1130C004B0102C0109284028091D30284FF03C07E
S1130C109092000103C085FD809200018091CD0275
S1130C20853008F073C08091CC02853008F06EC026
S1130C3080918402882309F469C08091D0021F92B4
S1130C408F93A3E6B2E0BF93AF9381E090E08C0F63
S1130C509D1F9F938F930E94A00CCE0101960E942A
S1130C604B010F900F900F900F900F900F90809169
S1130C700001813029F48BE091E00E94A30904C0B3
S1130C8086E091E00E94A309ECECF2E087EE808319
S1130C9083E08183848182831382CF010E940509CA
S1130CA00E942C088111FCCF0E943408182F0E9446
S1130CB06509082F80E191E00E94A3090E94AA0817
S1130CC0113029F482E791E00E944B010BC011110D
S1130CD005C082E891E00E944B0104C082E991E0E2
S1130CE00E944B011F920F93AFEAB1E0BF93AF9301
S1130CF0FF92EF920E94A00C852D942D0E944B012F
S1130D000F900F900F900F900F900F908091D20240
S1130D1081FF76C08FE692E00E944B01109285021B
S1130D200091CE020F3520F410E00F55110908C0D0
S1130D300A3620F010E00956110902C000E010E064
S1130D4020918402211102C000E010E08091000192
S1130D508230A1F58091CF028F3520F490E08F5539
S1130D60910908C08A3620F090E08956910902C0A2
S1130D7080E090E0211102C080E090E09F938F9387
S1130D801F9283E08F93BF92AF92FF92EF920E94E3
S1130D90A00C852D942D0E949C0183E691E00E9475
S1130DA04B01852D942D0E944B0188ED91E00E940A
S1130DB04B010FB6F894DEBF0FBECDBF1F930F9348
S1130DC0809100011F928F93BF92AF92FF92EF9296
S1130DD00E94A00C852D942D0E949C0183E691E035
S1130DE00E944B01852D942D0E944B0188ED91E0CA
S1130DF00E944B010FB6F894DEBF0FBECDBFC7C033
S1130E009092850289E792E00E944B0180918402CE
S1130E10882309F4BCC08091CF028F35C8F4ECEC70
S1130E20F2E0228130E02F5531094581429FC00113
S1130E30439F900D11246AE070E00E94520C70935D
S1130E40180160931701709316016093150124C073
S1130E508A36C8F0ECECF2E0228130E02956310900
S1130E604581429FC001439F900D11246AE070E0C8
S1130E700E94520C7093180160931701709316012D
S1130E806093150109C01092170110921801109275
S1130E9015011092160123C02091150130911601FD
S1130EA021153105E1F0ECECF2E083819481899F16
S1130EB0C001112464E170E00E94520CCB01821B3A
S1130EC0930B9093160180931501809117019091D3
S1130ED01801680F791F70931801609317018091AE
S1130EE00001813029F48BE091E00E94A30904C041
S1130EF086E091E00E94A309ECECF2E087EE8083A7
S1130F00918290911701809118019283838390912B
S1130F10150180911601948385831682CF010E9466
S1130F2005090E942C088111FCCF0E943408182F57
S1130F300E946509082F80E191E00E94A3090E94A4
S1130F40AA08113029F482E791E00E944B010BC0FA
S1130F50111105C082E891E00E944B0104C082E9AE
S1130F6091E00E944B011F920F93AFEAB1E0BF934F
S1130F70AF93FF92EF920E94A00C852D942D0E94B6
S1130F804B010F900F900F900F900F900F900E94B5
S1130F9057098111FBCD8FE19EE40197F1F700C061
S1130FA0000099CD1F920F920FB60F9211240F904B
S1130FB00FBE0F901F9018950E94B30980E00E9405
S1130FC0B90981E00E94BF090895EF92FF921F932F
S1130FD0CF93DF93E82E80E00E94C509C7E0D0E0FC
S1130FE010E0F12C97010C2E02C0359527950A9438
S1130FF0E2F720FF04C081E00E94CB0903C080E037
S11310000E94CB0981E00E94C5098AE18A95F1F723
S113101000C0110F0E94D1098111116080E00E946B
S1131020C5098AE18A95F1F700C02197D8F6812F86
S1131030DF91CF911F91FF90EF900895CF9380E0BF
S11310400E94BF098FEF0E94E507C82F81E00E942C
S1131050BF098C2FCF9108950E941E08982F90737A
S113106081E009F080E008950E941E0885FD04C017
S113107084FD04C08FEF089580E0089581E0089511
S1131080EF92FF920F931F93CF93DF934423A1F02A
S1131090EC01062F172F4150E42EF12C2FEFE21A0A
S11310A0F20AE80EF91E89910E94E507F80181937E
S11310B08F01CE15DF05B9F7DF91CF911F910F9105
S11310C0FF90EF9008950F931F93CF93DF936623C0
S11310D071F0EC016150062F10E00F5F1F4F080FF5
S11310E0191F89910E94E507C017D107D1F7DF9135
S11310F0CF911F910F910895CF93DF93C82FD62FCF
S113110080E00E94BF098C2F8F7180620E94E507E6
S11311108D2F0E94E50781E00E94BF09DF91CF91E6
S11311200895CF93DF93EC0180E00E94BF0981E62C
S11311300E94E5074091F602BE01CE010E944008DC
S113114081E00E94BF0960E487E00E947C08DF918F
S1131150CF91089580E00E94BF0982EE0E94E507C6
S113116081E00E94BF0960E787E00E947C0880E07C
S11311700E94B9096BE080E00E947C0881E00E9433
S1131180B90908956093F602682F85E00E947C08EF
S113119060E081E10E947C086091F60282E10E9495
S11311A07C0860E083E10E947C0860E084E10E94A6
S11311B07C0860E085E10E947C0860E086E10E9492
S11311C07C0866E286E00E947C086CE080E00E9475
S11311D07C0863E081E00E947C0863E082E00E9476
S11311E07C086FE484E00E947C0860E08CE10E944B
S11311F07C080E94AA08089560E787E00E947C08A2
S11312006AE080E00E947C080895CF93DF93EC01AC
S113121080E00E94B9090E94FC0880E00E94BF0996
S113122081EE0E94E50781E00E94BF0980E00E94F0
S1131230BF0980EA0E94E5076091F602CE010E9490
S1131240630881E00E94BF0981E00E94B909DF912F
S1131250CF9108950F931F93CF93DF93082FEB0142
S1131260142F80E00E94BF09802F8F710E94E50730
S1131270412FBE01CE010E94400881E00E94BF09B7
S1131280DF91CF911F910F910895CF93DF931F9218
S1131290CDB7DEB741E0BE016F5F7F4F87E10E94AB
S11312A02A09898181700F90DF91CF9108950E945E
S11312B01E0886FD07C00E94450991E0882319F0A5
S11312C090E001C091E0892F0895CF93DF931F929E
S11312D0CDB7DEB741E0BE016F5F7F4F88E00E946B
S11312E02A0989818F700F90DF91CF9108950F9310
S11312F01F93CF93DF93C82F8B01D42F80E00E94DC
S1131300BF098C2F8F7180620E94E5076D2FC80181
S11313100E94630881E00E94BF09DF91CF911F9171
S11313200F910895CF93DF93EC0180E00E94B909F7
S113133045E0BE018BE00E94770981E00E94B90973
S1131340DF91CF910895CF93DF93EC0145E0BC0189
S11313508AE00E94770945E0BE0180E10E94770996
S1131360DF91CF9108956E9A209A219A229A239818
S11313700895882311F0769A08957698089588231D
S113138011F0289A089528980895882311F0299A2D
S1131390089529980895882311F02A9A08952A987F
S11313A0089583B18870089581E08093D70080EA1E
S11313B08093D80082E189BD09B400FEFDCF80E9A5
S11313C08093D8001092E00010928B021092880251
S11313D08CE08093E200789408952FB7F89480917C
S11313E08B02811104C02FBF8FEF9FEF089583E01C
S11313F08093E9008091E80085FD12C082FD04C05D
S11314000BC082FD04C008C0E8EEF0E09BE69083C8
S1131410808185FFF6CF04C02FBF8FEF9FEF089523
S11314208091F1009091E80095FD03C09BE69093B4
S1131430E8002FBF90E008959FB7F89480918B0245
S1131440882389F083E08093E9008091F200811180
S11314500BC02091E80022FF07C025FD05C02BE644
S11314602093E80001C080E09FBF0895CF93DF93ED
S113147090918B02992309F44CC09FB7F89424E00F
S11314802093E90020918902222349F02091E80069
S113149025FD03C09FBF8FEF41C010928902309198
S11314A0E400375E2091E80025FD24C09FBF9091A1
S11314B0E400931781F090918B02992361F1A9EED6
S11314C0B0E044E0E8EEF0E0C4EED0E00DC09FBF31
S11314D09881931305C081E0809389028FEF1EC029
S11314E090918B029923C9F09FB7F8944C93208173
S11314F025FFEDCF8093F1008091E80085FD03C0C6
S11315008AE38093E80085E080938A029FBF80E0AD
S113151005C08FEF03C08FEF01C08FEFDF91CF9134
S113152008951F920F920FB60F9211248F939F93D9
S1131530EF93FF93E1EEF0E08081108283FF11C00E
S11315401092E90091E09093EB001092EC0092E18C
S11315509093ED0098E09093F00010928B0210921B
S1131560880282FF13C080918B02882379F08091D6
S11315708A02882359F0815080938A02811106C01F
S113158084E08093E9008AE38093E800FF91EF917F
S11315909F918F910F900FBE0F901F9018951F92DF
S11315A00F920FB60F9211240F931F932F933F9313
S11315B04F935F936F937F938F939F93AF93BF9357
S11315C0CF93DF93EF93FF931092E9008091E800AB
S11315D083FF4CC1E1EFF0E0608180812081908144
S11315E030E0392B4081908150E0592B7081C081CB
S11315F092EF9093E800863009F058C004C081E26D
S11316008093EB003AC166E08CEA90E0FC01A5917E
S1131610B4912A173B0711F0079623C0FC013296B8
S1131620A591B4914A175B0711F007961AC0FC0103
S1131630349645915491FC0136962491872F90E07D
S11316409C2B8F3F910519F010F08FEF90E08217DB
S113165008F4282FA8EEB0E070E16EEFC1EFD0E0FF
S113166003C0615099F6CBCF8C91982F9570E1F31C
S113167082FD03C1322F213108F0372F332309F4BF
S1131680F9C0FA01832F9491988381503196811186
S1131690FACF8FEF830F90E00196480F591F231B59
S11316A06C932111E1CF3031F9F2E7C0853061F458
S11316B08EEF8093E800E8EEF0E0808180FFFDCFBC
S11316C020682093E300D9C0893009F035C0611146
S11316D0CDC020938B021092880210928A028EEF62
S11316E08093E80081E021E731E0C9EED0E0ABEE81
S11316F0B0E00CEE10E06DEE70E08883A9014F5F5E
S11317005F4FF90194919C93992361F0FA014491FC
S1131710F8014083F901329694912D5F3F4FFB010C
S1131720908301C09A018F5F853039F7EAEEF0E0CB
S11317308EE180831082A1C0883081F4603809F082
S113174095C0E8EEF0E0808180FFFDCF80918B02B0
S11317508093F1008EEF8093E8008FC08132B9F45A
S1131760613A09F083C0E8EEF0E0808180FFFDCFAC
S1131770E9E1F1E020E231E0A1EFB0E081918C9366
S1131780E217F307D9F78EEF8093E80076C0803232
S1131790D1F4613209F06AC0E8EEF0E0808182FFA2
S11317A0FDCFE9E1F1E020E231E0A1EFB0E08C917E
S11317B08193E217F307D9F7E8EEF0E08BEF80832B
S11317C08EEF80835AC0823271F4613209F04EC0C8
S11317D020938802E8EEF0E0808180FFFDCF8EEF59
S11317E08093E8004AC081111AC0E8EEF0E08081DD
S11317F080FFFDCF623851F4E9EEF0E04083809140
S1131800EB0085FB882780F9108201C080E0E1EFBE
S1131810F0E0808310828EEF8093E8002EC0982F32
S11318209D7F913019F5623009F5232BF9F44F7738
S11318309FEF940F9430D0F49EEF9093E800409380
S1131840E900833021F481E28093EB0016C089E142
S11318508093EB0081E090E002C0880F991F4A95C5
S1131860E2F7EAEEF0E08083108207C081E2809321
S1131870EB0003C06C932111F7CEFF91EF91DF9140
S1131880CF91BF91AF919F918F917F916F915F9114
S11318904F913F912F911F910F910F900FBE0F9079
S11318A01F90189597FB072E16F4009407D077FD28
S11318B009D00E94660C07FC05D03EF490958195F2
S11318C09F4F0895709561957F4F0895AA1BBB1B88
S11318D051E107C0AA1FBB1FA617B70710F0A61B2C
S11318E0B70B881F991F5A95A9F780959095BC014D
S11318F0CD010895FC0188279927E894219120328D
S1131900E9F3293010F02E30C8F32B3241F02D3298
S113191039F4689404C00E94980C820F911D21919F
S113192020532A30C0F31EF4909581959F4F08955B
S11319307AE0979F902D879F802D910D1124089513
S1131940AEE0B0E0E6EAFCE00C94690F0D891E8974
S113195086E08C831A8309838FEF9FE79E838D83B0
S1131960AE01475E5F4F6F89788DCE0101960E946C
S1131970C30C2F813885F801E20FF31F10822E96D5
S1131980E4E00C94850FACE0B0E0E9ECFCE00C94EE
S11319905B0F7C016B018A01FC0117821682838133
S11319A081FFBDC1CE0101964C01F7019381F6017F
S11319B093FD859193FF81916F01882309F4ABC155
S11319C0853239F493FD859193FF81916F018532BE
S11319D029F4B70190E00E94AB0EE7CF512C312CD3
S11319E020E02032A0F48B3269F030F4803259F0D8
S11319F0833269F420612CC08D3239F0803339F49C
S1131A00216026C02260246023C0286021C027FDF5
S1131A1027C030ED380F3A3078F426FF06C0FAE0DC
S1131A205F9E300D1124532E13C08AE0389E300D72
S1131A301124332E20620CC08E3221F426FD6BC19A
S1131A40206406C08C3611F4206802C0883641F444
S1131A50F60193FD859193FF81916F018111C1CFAF
S1131A60982F9F7D9554933028F40C5F1F4FFFE30C
S1131A70F9830DC0833631F0833771F0833509F073
S1131A805BC022C0F801808189830E5F1F4F44240C
S1131A904394512C540115C03801F2E06F0E711CAF
S1131AA0F801A080B18026FF03C0652D70E002C05C
S1131AB06FEF7FEFC5012C870E94A00E2C018301DC
S1131AC02C852F77222E17C03801F2E06F0E711C7F
S1131AD0F801A080B18026FF03C0652D70E002C02C
S1131AE06FEF7FEFC5012C870E94950E2C012C858A
S1131AF02068222E830123FC1BC0832D90E048160E
S1131B005906B0F4B70180E290E00E94AB0E3A941B
S1131B10F4CFF50127FC859127FE81915F01B70180
S1131B2090E00E94AB0E31103A94F1E04F1A510844
S1131B304114510471F7E5C0843611F0893639F542
S1131B40F80127FF07C060817181828193810C5F56
S1131B501F4F08C060817181072E000C880B990B00
S1131B600E5F1F4F2F76722E97FF09C090958095B8
S1131B70709561957F4F8F4F9F4F2068722E2AE09A
S1131B8030E0A4010E94E30EA82EA81844C08537B3
S1131B9029F42F7EB22E2AE030E025C0F22FF97FFF
S1131BA0BF2E8F36C1F018F4883579F0B4C0803771
S1131BB019F0883721F0AFC02F2F2061B22EB4FE68
S1131BC00DC08B2D8460B82E09C024FF0AC09F2F3E
S1131BD09660B92E06C028E030E005C020E130E070
S1131BE002C020E132E0F801B7FE07C060817181D4
S1131BF0828193810C5F1F4F06C06081718180E0F8
S1131C0090E00E5F1F4FA4010E94E30EA82EA818B7
S1131C10FB2DFF777F2E76FE0BC0372D3E7FA5145C
S1131C2050F474FE0AC072FC08C0372D3E7E05C015
S1131C30BA2C372D03C0BA2C01C0B52C34FF0DC00B
S1131C40FE01EA0DF11D8081803311F4397E09C053
S1131C5032FF06C0B394B39404C0832F867809F08E
S1131C60B39433FD13C030FF06C05A2CB31418F4D8
S1131C70530C5B18B32CB31468F4B70180E290E002
S1131C803C870E94AB0EB3943C85F5CFB31410F49B
S1131C903B1801C0312C34FF12C0B70180E390E03F
S1131CA03C870E94AB0E3C8532FF17C031FD03C058
S1131CB088E790E002C088E590E0B7010CC0832F6C
S1131CC0867859F031FF02C08BE201C080E237FD13
S1131CD08DE2B70190E00E94AB0EA51438F4B70171
S1131CE080E390E00E94AB0E5A94F7CFAA94F401DB
S1131CF0EA0DF11D8081B70190E00E94AB0EA110A6
S1131D00F5CF332009F451CEB70180E290E00E9470
S1131D10AB0E3A94F6CFF7018681978102C08FEF1C
S1131D209FEF2C96E2E10C94770FFC010590615033
S1131D3070400110D8F7809590958E0F9F1F0895DD
S1131D40FC016150704001900110D8F78095909586
S1131D508E0F9F1F08950F931F93CF93DF93FB0163
S1131D60238121FD03C08FEF9FEF28C022FF16C0FF
S1131D7046815781248135814217530744F4A08159
S1131D80B1819D012F5F3F4F318320838C93268146
S1131D9037812F5F3F4F3783268310C0EB01092F14
S1131DA0182F0084F185E02D0995892BE1F68E81A9
S1131DB09F8101969F838E83812F902FDF91CF91F6
S1131DC01F910F910895FA01AA27283051F120316B
S1131DD081F1E8946F936E7F6E5F7F4F8F4F9F4FBB
S1131DE0AF4FB1E03ED0B4E03CD0670F781F891FFD
S1131DF09A1FA11D680F791F8A1F911DA11D6A0FCB
S1131E00711D811D911DA11D20D009F468943F917D
S1131E102AE0269F11243019305D3193DEF6CF017C
S1131E200895462F4770405D4193B3E00FD0C9F742
S1131E30F6CF462F4F70405D4A3318F0495D31FDAF
S1131E404052419302D0A9F7EACFB4E0A695979502
S1131E50879577956795BA95C9F7009761057105D8
S1131E6008959B01AC010A2E069457954795379522
S1131E702795BA95C9F7620F731F841F951FA01D7C
S1131E800895F999FECF92BD81BDF89A992780B53E
S1131E900895262FF999FECF92BD81BDF89A019736
S1131EA000B4021639F01FBA20BD0FB6F894FA9A9E
S1131EB0F99A0FBE08952F923F924F925F926F92BC
S1131EC07F928F929F92AF92BF92CF92DF92EF92C6
S1131ED0FF920F931F93CF93DF93CDB7DEB7CA1B47
S1131EE0DB0B0FB6F894DEBF0FBECDBF09942A8872
S1131EF0398848885F846E847D848C849B84AA841A
S1131F00B984C884DF80EE80FD800C811B81AA81A6
S1131F10B981CE0FD11D0FB6F894DEBF0FBECDBF71
S10B1F20ED010895F894FFCFD0
S1131F2801E7E7E7E7E7E7E7E7E7E2E7E7E7E7E126
S1131F38D7D7D7D7D70A000A0000E1000000000865
S1131F483C69645F6368616E6765645F66726F6D40
S1131F585F25645F746F5F25643E0A003C636F6E9F
S1131F686E65637465643A25643E0A00706F6E6733
S1131F78003C73656E74213E0A0025643A73642537
S1131F88690A003C73656E745F746F5F756172747F
S1131F983A003C6D6573736167653A6C6F73743EA0
S1131FA80A003C6D6573736167653A73656E743EC8
S1131FB80A00536F6D657468696E672069732072CF
S1131FC865616C6C792077726F6E67212121003C02
S1131FD87175616C6974793A25643E0A003C6D65D3
S1131FE86C743A25643E0A003C546F6F2068696734
S1131FF8682076616C7565213E0A003C736C6274D6
S11320083A25643E0A003C737262743A25643E0AB7
S1132018003C756E6B6E6F776E3A25733E0A003C12
S113202825643A62616C6C3A25643E0A003C256476
S11320383A706F6E673E0A0025643A756E6B6E6F70
S1132048776E3A25730A003C636F6E6E6563746538
S1132058645F69643A25643E0A003C7361696E3AB8
S113206825733E0A0052656365697665643A0A0019
S113207825642E2076616C3D25640A0041726D65E5
S1132088640A0054616D69696C3A2025640A005534
S11320986C656D697365640A00616C756D69736557
S10720A8640A0000C2
S9030000FC
