:100000000C94A2000C9419030C943D030C94BF00B3
:100010000C94BF000C94BF000C94BF000C94BF0064
:100020000C94BF000C948A030C94BF000C948D07B1
:100030000C94CB070C94BF000C94BF000C94BF0031
:100040000C94BF000C94BF000C94BF000C9461038F
:100050000C94BF000C94BF000C94BF000C94AB0335
:100060000C94BF000C94BF000C94BF000C94BF0014
:100070000C94BF000001000027011200020000E400
:10008000004300030000E0000401030904C2001C57
:1000900002030904AC0014030309049E000C0C03C2
:1000A00031003200330034003500000014035400E6
:1000B000650073007400420065006E006300680014
:1000C00000001C034C0061007500720069002000F4
:1000D0004D00690068006B0065006C007300000053
:1000E0000403090409024300020100C032090400AC
:1000F0000001020201000524001001052401010194
:1001000004240206052406000107058203100040AE
:1001100009040100020A0000000705030220000094
:10012000070584022000001201000202000010C036
:10013000167A040001010203010001C112018026A8
:100140000181260011241FBECFEFD4E0DEBFCDBF5A
:1001500011E0A0E0B1E0E0E6F9E102C005900D9207
:10016000AC35B107D9F721E0ACE5B1E001C01D9293
:10017000AB3BB207E1F70E948A050C94AE0C0C94DD
:100180000000CF93DF9325B12C6025B95C9AFC0168
:100190002081222369F0DC011196E8ECF0E0CEEC3E
:1001A000D0E0908195FFFDCF28832D912111F9CFCB
:1001B0008FE19EE40197F1F700C0000085B1837FD5
:1001C00085B95C98DF91CF9108959091A70199230B
:1001D00019F02E982F9A02C02E9A2F98809388009B
:1001E00090E090935F0180935E0108959091A70144
:1001F000992319F02E9A2F9802C02E982F9A809347
:10020000880090E091958195910990935F0180938A
:100210005E0108951092A3011092A2011092B601FE
:100220001092B50110928C0110928B011092B401C2
:100230001092B3011092AC011092AB0110928F0199
:1002400010928E0180E00E94E5000895CF93DF9325
:100250008091A2019091A3019093B6018093B50182
:10026000C091AF01D091B00120918E0130918F01EA
:100270002C1B3D0B3093A3012093A20180916101BF
:10028000823009F4FDC0E091A601F0E0C901BF0190
:100290000E944E096091BA0170E00E945F0980914E
:1002A0008B0190918C01680F791F70938C01609382
:1002B0008B01809185019091860144275527481B29
:1002C000590B6417750724F450938C0140938B01EC
:1002D00040918B0150918C018417950724F49093E1
:1002E0008C0180938B018091AB019091AC010097C0
:1002F00029F41092A1011092A00116C0992364F470
:100300008091A4019091A501919581959109909377
:10031000A1018093A00108C08091A4019091A50142
:100320009093A1018093A0016091AA0170E0C9019E
:100330000E944E096091A0017091A1019C01260FBD
:10034000371F80918B0190918C01BF010E945F0942
:10035000620F731F7093B2016093B10161302FEF90
:1003600072073CF481E09FEF9093B2018093B1015A
:100370000AC06F3F710539F034F08FEF90E0909331
:10038000B2018093B10180916401909165019093D5
:10039000630180936201C530D1053CF420915E0178
:1003A00030915F012F3F310551F0CC3FDF4FA4F07A
:1003B00020915E0130915F0121303F4F69F420911F
:1003C0000001309101018217930730F40196909358
:1003D00065018093640107C0009729F0019790930D
:1003E0006501809364018091B1019091B2019923DC
:1003F00054F49195819591099093B2018093B10144
:100400000E94F60002C00E94E50020910201309196
:100410000301A90141505109809164019091650146
:100420004817590769F460916201709163012617BA
:10043000370731F41092610181E08093600130C090
:100440002817390769F4209162013091630142173E
:10045000530731F481E0809361018093600120C0F3
:10046000209100013091010182179307C9F482E0C5
:100470008093610181E0809360010E940A0110C0B5
:10048000809164019091650101979093650180933B
:100490006401892B29F41092610181E0809360014D
:1004A000DF91CF910895CF93DF93EC010E94C100BB
:1004B0008881882331F021960E9432078991811129
:1004C000FBCFDF91CF910895EF92FF920F931F938F
:1004D000CF93DF93C62F8C01D0E012C00E94E906B3
:1004E0008D3011F08A3019F4F701108211C090EEAE
:1004F000980F9F3550F4F70180830F5F1F4FDF5F28
:100500007801DC13EBCFDC2F02C0DC1738F3CD2FE2
:100510008C2FDF91CF911F910F91FF90EF90089555
:1005200089B1282F23702093880181FB992790F9A6
:1005300080916B018170892780938D0120936B01DD
:100540008823E9F080910601882351F08091AD0164
:100550009091AE0101979093AE018093AD0109C0D7
:100560008091AD019091AE0101969093AE01809380
:10057000AD0180910401882361F1459A1CC08091EE
:100580000601882351F08091AD019091AE01019652
:100590009093AE018093AD0109C08091AD0190911F
:1005A000AE0101979093AE018093AD01809104015B
:1005B000882379F045988091AD019091AE01892B07
:1005C00041F480910401882321F098B180E18927CA
:1005D00088B908951092070182E30E94E500109205
:1005E000AE011092AD012FEF89E698E121508040D5
:1005F0009040E1F700C000008091AF019091B00100
:10060000992354F46091060181E068276093060104
:1006100081E090E00E945C0C10928F0110928E019C
:100620000E940A0180E00E94E50081E080930701BA
:1006300008951F920F920FB60F9211242F933F939C
:100640004F935F936F937F938F939F93AF93BF93DA
:10065000EF93FF930E949002FF91EF91BF91AF91B2
:100660009F918F917F916F915F914F913F912F91CA
:100670000F900FBE0F901F9018951F920F920FB6FC
:100680000F9211242F933F934F935F936F937F9318
:100690008F939F93AF93BF93EF93FF930E9490022A
:1006A000FF91EF91BF91AF919F918F917F916F914A
:1006B0005F914F913F912F910F900FBE0F901F9020
:1006C00018951F920F920FB60F9211248F939F933C
:1006D00080910401882321F098B180E1892788B9AD
:1006E0008091AD019091AE0190938301809382013E
:1006F0009093B0018093AF011092AE011092AD01C2
:1007000081E0809384019F918F910F900FBE0F9095
:100710001F9018951F920F920FB60F9211248F936E
:1007200083B1817080938701882349F081E08093B1
:10073000680180910401882341F0459A06C0109217
:10074000680180910401811145988F910F900FBE2F
:100750000F901F9018951F920F920FB60F921124B1
:100760008F939F93EF93FF938091CE0090EE980F1D
:100770009F3558F4E0915D01F0E0E057FE4F808333
:1007800090915D019F5F90935D018A3011F08D30F3
:1007900059F4E0915D01F0E0E057FE4F10821092B5
:1007A0005D0181E080935C01FF91EF919F918F91BA
:1007B0000F900FBE0F901F9018951F93CF93DF934C
:1007C000EC0182E090E00E94540C182FCE010E94B0
:1007D0008709212F30E02817390709F097C1888150
:1007E0008A3349F09E012F5F3F4FE9012F5F3F4F52
:1007F00098819A33D1F799819337B1F48A818436FD
:1008000009F070C081E080930701CE0103960E9439
:10081000870990938F0180938E01892B11F40E9498
:100820000A0110926A0172C19737A9F48A818C3645
:1008300009F051C110920701CE0103960E94870969
:10084000992324F481950E94F60002C00E94E500DD
:1008500010926A015BC1973609F58A81823609F0E8
:100860006BC0809168011F928F931F921F938FE03E
:1008700091E09F938F9380E791E09F938F930E94E5
:10088000AF0980E791E00E9453028DB79EB70896AA
:100890000FB6F8949EBF0FBE8DBF38C1943649F590
:1008A0008A81823709F0D2C0CE0103960E9487095F
:1008B0002091A70130E02817390731F03091060167
:1008C00021E02327209306018093A701682F80E071
:1008D00090E00E945C0C6091060181E090E00E9433
:1008E0005C0C14C18A81843709F03EC00E94EA0280
:1008F0000DC19D3681F48A81803709F0ECC0CE01AC
:1009000003960E94870980930601682F81E090E09A
:100910000E945C0CFBC09037D1F48A81843609F0C8
:1009200073C0CE0103960E9487098093070181114D
:10093000EDC00E940A01EAC08A81833709F097C09E
:10094000CE0103960E94870980936901DFC0963625
:1009500051F58A81833709F0BEC0CE0103960E940B
:10096000870980930501D2C08091B0018F93809157
:10097000AF018F931F921F938AE191E09F938F9312
:1009800080E791E09F938F930E94AF0980E791E009
:100990000E9453028DB79EB708960FB6F8949EBF7B
:1009A0000FBE8DBFB3C0993669F48A818436E9F5EC
:1009B000CE0103960E948709682F82E090E00E9492
:1009C0005C0CA4C09F3309F076C082E090E00E94E6
:1009D000540C1F928F931F921F9385E291E09F9377
:1009E0008F9380E791E09F938F930E94AF0980E7F8
:1009F00091E00E9453028DB79EB708960FB6F89407
:100A00009EBF0FBE8DBF82C08A81873609F063C04A
:100A1000CE0103960E948709C82F682F83E090E0DB
:100A20000E945C0CC093AA0171C08A81873609F0CC
:100A300052C0CE0103960E948709C82F682F84E018
:100A400090E00E945C0CC093BA0160C08A81873636
:100A500009F041C0CE0103960E948709C82F682F74
:100A600085E090E00E945C0CC093B9014FC08A8180
:100A7000873689F58091BA011F928F938091AA01E0
:100A80001F928F931F921F9381E391E09F938F9307
:100A900080E791E09F938F930E94AF0980E791E0F8
:100AA0000E9453028DB79EB70A960FB6F8949EBF68
:100AB0000FBE8DBF2BC0943771F48A818C3659F4E8
:100AC000CE0103960E9487098093040181111EC004
:100AD000449845981BC02196DF93CF931F921F9394
:100AE00081E491E09F938F9380E791E09F938F93B0
:100AF0000E94AF0980E791E00E9453028DB79EB734
:100B000008960FB6F8949EBF0FBE8DBFDF91CF91B0
:100B10001F910895CF93DF93CDB7DEB760970FB6DF
:100B2000F894DEBF0FBECDBFE1E6F0E080E8808341
:100B300010820E94D30684B1827F84B984B18C6014
:100B400084B951988AB184618AB983E390E0909323
:100B5000CD008093CC0088E98093C9008EE080931B
:100B6000CA0080E090E00E94540C8093A70181E0CD
:100B700090E00E94540C8093060183E090E00E9474
:100B8000540C182F8093AA0184E090E00E94540C2A
:100B90008093BA0185E090E00E94540C8093B901E3
:100BA0001F3F41F486E08093AA0166E083E090E075
:100BB0000E945C0C8091BA018F3F41F488E08093E1
:100BC000BA0168E084E090E00E945C0C3C9A3D9A97
:100BD000449A459A2FEF83ED90E321508040904056
:100BE000E1F700C0000080E28093A60180EE9FE163
:100BF000909386018093850180EA9FE09093810124
:100C00008093800189E190E09093A5018093A401F5
:100C100010928C0110928B011092A9011092A801E0
:100C20001092B0011092AF011092A3011092A20194
:100C300092E094BD85E085BD2AEF27BD90936E00BC
:100C400016BC91E09093680090936B005098519877
:100C50008093690083E08DBB3E9A81E88093800099
:100C60008CE08093810010928800269A279A7894CD
:100C70000F2EF8E4CF2EF1E0DF2EF02D00E711E08B
:100C80000F2EF0E5EF2EF1E0FF2EF02D8091840184
:100C9000882309F441C080910701882321F00E9434
:100CA000260110928401809169018823A9F0809126
:100CB000B0018F938091AF018F93DF92CF921F93FA
:100CC0000F930E94AF09C8010E9453020F900F902A
:100CD0000F900F900F900F908091AF019091B00105
:100CE0000A978CF48091B1019091B2018B3F9105EC
:100CF00054F080916601909167010196909367018D
:100D00008093660104C01092670110926601909171
:100D10006A019F5F90936A0190916A01943669F429
:100D200080910501882349F010928F0110928E0165
:100D30000E940A0180E00E94E500909160019923E1
:100D4000A9F0809161011F928F93FF92EF921F9300
:100D50000F930E94AF09C8010E94530210926001D4
:100D60000F900F900F900F900F900F900E94180708
:100D7000882369F060E1CE0101960E94640280310F
:100D800009F084CFCE0101960E94DD037FCF8091D0
:100D90005C01813009F07ACF80E991E00E94DD03A7
:100DA00010925C0173CF80EA8093D80086E089BD01
:100DB00009B400FEFDCF80E88093D8001092E000D7
:100DC00010926F0110926C018CE08093E200789495
:100DD00008952FB7F89480916F01811104C02FBF3F
:100DE0008FEF9FEF089583E08093E9008091E80002
:100DF00085FD12C082FD04C00BC082FD04C008C086
:100E0000E8EEF0E09BE69083808185FFF6CF04C09A
:100E10002FBF8FEF9FEF08958091F1009091E80030
:100E200095FD03C09BE69093E8002FBF90E00895E6
:100E30009FB7F89480916F01882389F083E08093B5
:100E4000E9008091F20081110BC02091E80022FF9F
:100E500007C025FD05C02BE62093E80001C080E017
:100E60009FBF0895CF93DF9390916F01992309F469
:100E70004CC09FB7F89424E02093E90020916D01C5
:100E8000222349F02091E80025FD03C09FBF8FEF8A
:100E900041C010926D013091E400375E2091E8006E
:100EA00025FD24C09FBF9091E400931781F090919D
:100EB0006F01992361F1A9EEB0E044E0E8EEF0E0C3
:100EC000C4EED0E00DC09FBF9881931305C081E0B0
:100ED00080936D018FEF1EC090916F019923C9F02F
:100EE0009FB7F8944C93208125FFEDCF8093F100BC
:100EF0008091E80085FD03C08AE38093E80085E0E7
:100F000080936E019FBF80E005C08FEF03C08FEF1D
:100F100001C08FEFDF91CF9108951F920F920FB60E
:100F20000F9211248F939F93EF93FF93E1EEF0E0E4
:100F30008081108283FF11C01092E90091E09093AC
:100F4000EB001092EC0092E19093ED0098E090930A
:100F5000F00010926F0110926C0182FF13C080911B
:100F60006F01882379F080916E01882359F08150B8
:100F700080936E01811106C084E08093E9008AE3CA
:100F80008093E800FF91EF919F918F910F900FBE9A
:100F90000F901F9018951F920F920FB60F92112469
:100FA0000F931F932F933F934F935F936F937F9371
:100FB0008F939F93AF93BF93CF93DF93EF93FF9361
:100FC0001092E9008091E80083FF4CC1E1EFF0E06E
:100FD000608180812081908130E0392B4081908137
:100FE00050E0592B7081C08192EF9093E8008630D9
:100FF00009F058C004C081E28093EB003AC166E07A
:1010000084E790E0FC01A591B4912A173B0711F009
:10101000079623C0FC013296A591B4914A175B074D
:1010200011F007961AC0FC01349645915491FC01C9
:1010300036962491872F90E09C2B8F3F910519F0D5
:1010400010F08FEF90E0821708F4282FA8EEB0E0A0
:1010500070E16EEFC1EFD0E003C0615099F6CBCFE5
:101060008C91982F9570E1F382FD03C1322F2131CD
:1010700008F0372F332309F4F9C0FA01832F949134
:101080009883815031968111FACF8FEF830F90E0D2
:101090000196480F591F231B6C932111E1CF30316A
:1010A000F9F2E7C0853061F48EEF8093E800E8EE56
:1010B000F0E0808180FFFDCF20682093E300D9C05D
:1010C000893009F035C06111CDC020936F011092B5
:1010D0006C0110926E018EEF8093E80081E029E3AD
:1010E00031E0C9EED0E0ABEEB0E00CEE10E06DEE1A
:1010F00070E08883A9014F5F5F4FF90194919C9341
:10110000992361F0FA014491F8014083F901329684
:1011100094912D5F3F4FFB01908301C09A018F5F37
:10112000853039F7EAEEF0E08EE180831082A1C0CD
:10113000883081F4603809F095C0E8EEF0E08081F5
:1011400080FFFDCF80916F018093F1008EEF80933F
:10115000E8008FC08132B9F4613A09F083C0E8EE4B
:10116000F0E0808180FFFDCFE8E0F1E02FE031E0AA
:10117000A1EFB0E081918C93E217F307D9F78EEFDE
:101180008093E80076C08032D1F4613209F06AC001
:10119000E8EEF0E0808182FFFDCFE8E0F1E02FE0B3
:1011A00031E0A1EFB0E08C918193E217F307D9F71A
:1011B000E8EEF0E08BEF80838EEF80835AC08232BE
:1011C00071F4613209F04EC020936C01E8EEF0E05A
:1011D000808180FFFDCF8EEF8093E8004AC08111AF
:1011E0001AC0E8EEF0E0808180FFFDCF623851F454
:1011F000E9EEF0E040838091EB0085FB882780F9E1
:10120000108201C080E0E1EFF0E0808310828EEF79
:101210008093E8002EC0982F9D7F913019F56230A1
:1012200009F5232BF9F44F779FEF940F9430D0F406
:101230009EEF9093E8004093E900833021F481E22F
:101240008093EB0016C089E18093EB0081E090E091
:1012500002C0880F991F4A95E2F7EAEEF0E080831A
:10126000108207C081E28093EB0003C06C932111D0
:10127000F7CEFF91EF91DF91CF91BF91AF919F9109
:101280008F917F916F915F914F913F912F911F911E
:101290000F910F900FBE0F901F90189500245527A7
:1012A00004C0080E591F880F991F009729F07695E2
:1012B0006795B8F37105B9F7802D952F089597FBC1
:1012C000072E16F4009407D077FD09D00E94730909
:1012D00007FC05D03EF4909581959F4F0895709539
:1012E00061957F4F0895AA1BBB1B51E107C0AA1F40
:1012F000BB1FA617B70710F0A61BB70B881F991FB7
:101300005A95A9F780959095BC01CD010895FC01EF
:1013100088279927E89421912032E9F3293010F0A9
:101320002E30C8F32B3241F02D3239F4689404C0CA
:101330000E94A509820F911D219120532A30C0F3EC
:101340001EF4909581959F4F0895BC01880F991FB9
:10135000880F991F860F971F880F991F0895AEE079
:10136000B0E0E5EBF9E00C94850C0D891E8986E070
:101370008C831A8309838FEF9FE79E838D83AE0151
:10138000475E5F4F6F89788DCE0101960E94D2092A
:101390002F813885F801E20FF31F10822E96E4E0CA
:1013A0000C94A10CACE0B0E0E8EDF9E00C94770C03
:1013B0007C016B018A01FC0117821682838181FF07
:1013C000BFC1CE0101964C01F7019381F60193FD57
:1013D000859193FF81916F01882309F4ADC1853216
:1013E00039F493FD859193FF81916F01853229F442
:1013F000B70190E00E94BC0BE7CF512C312C20E0CC
:101400002032A0F48B3269F030F4803259F083320C
:1014100069F420612EC08D3239F0803339F42160B7
:1014200028C02260246025C0286023C027FD29C071
:1014300030ED380F3A3088F426FF07C0852D6AE07A
:101440000E946E0C582E530E14C0832D6AE00E9429
:101450006E0C382E330E20620CC08E3221F426FD25
:101460006BC1206406C08C3611F4206802C0883637
:1014700041F4F60193FD859193FF81916F018111F4
:10148000BFCF982F9F7D9554933028F40C5F1F4F4A
:10149000FFE3F9830DC0833631F0833771F0833574
:1014A00009F05BC022C0F801808189830E5F1F4F65
:1014B00044244394512C540115C03801F2E06F0EBE
:1014C000711CF801A080B18026FF03C0652D70E07B
:1014D00002C06FEF7FEFC5012C870E94B10B2C017A
:1014E00083012C852F77222E17C03801F2E06F0E72
:1014F000711CF801A080B18026FF03C0652D70E04B
:1015000002C06FEF7FEFC5012C870E94A60B2C0154
:101510002C852068222E830123FC1BC0832D90E0A4
:1015200048165906B0F4B70180E290E00E94BC0B67
:101530003A94F4CFF50127FC859127FE81915F0154
:10154000B70190E00E94BC0B31103A94F1E04F1AC1
:1015500051084114510471F7E5C0843611F0893601
:1015600039F5F80127FF07C060817181828193817D
:101570000C5F1F4F08C060817181072E000C880B23
:10158000990B0E5F1F4F2F76722E97FF09C0909513
:101590008095709561957F4F8F4F9F4F2068722E79
:1015A0002AE030E0A4010E94F40BA82EA81844C041
:1015B000853729F42F7EB22E2AE030E025C0F22FA5
:1015C000F97FBF2E8F36C1F018F4883579F0B4C09A
:1015D000803719F0883721F0AFC02F2F2061B22E4D
:1015E000B4FE0DC08B2D8460B82E09C024FF0AC044
:1015F0009F2F9660B92E06C028E030E005C020E19C
:1016000030E002C020E132E0F801B7FE07C060819F
:101610007181828193810C5F1F4F06C0608171814F
:1016200080E090E00E5F1F4FA4010E94F40BA82EF3
:10163000A818FB2DFF777F2E76FE0BC0372D3E7F3F
:10164000A51450F474FE0AC072FC08C0372D3E7E0B
:1016500005C0BA2C372D03C0BA2C01C0B52C34FFFD
:101660000DC0FE01EA0DF11D8081803311F4397E39
:1016700009C032FF06C0B394B39404C0832F8678A8
:1016800009F0B39433FD13C030FF06C05A2CB314D5
:1016900018F4530C5B18B32CB31468F4B70180E250
:1016A00090E03C870E94BC0BB3943C85F5CFB3140B
:1016B00010F43B1801C0312C34FF12C0B70180E395
:1016C00090E03C870E94BC0B3C8532FF17C031FD87
:1016D00003C088E790E002C088E590E0B7010CC045
:1016E000832F867859F031FF02C08BE201C080E27F
:1016F00037FD8DE2B70190E00E94BC0BA51438F4D1
:10170000B70180E390E00E94BC0B5A94F7CFAA94F3
:10171000F401EA0DF11D8081B70190E00E94BC0B3D
:10172000A110F5CF332009F44FCEB70180E290E04D
:101730000E94BC0B3A94F6CFF7018681978102C0D4
:101740008FEF9FEF2C96E2E10C94930CFC01059037
:10175000615070400110D8F7809590958E0F9F1FB3
:101760000895FC016150704001900110D8F78095F8
:1017700090958E0F9F1F08950F931F93CF93DF9324
:10178000FB01238121FD03C08FEF9FEF28C022FFC3
:1017900016C046815781248135814217530744F48E
:1017A000A081B1819D012F5F3F4F318320838C93B6
:1017B000268137812F5F3F4F3783268310C0EB018F
:1017C000092F182F0084F185E02D0995892BE1F66A
:1017D0008E819F8101969F838E83812F902FDF9131
:1017E000CF911F910F910895FA01AA27283061F136
:1017F000203191F1E8946F936E7F6E5F7F4F8F4F32
:101800009F4FAF4FB1E040D0B4E03ED0670F781F9C
:10181000891F9A1FA11D680F791F8A1F911DA11D85
:101820006A0F711D811D911DA11D22D009F46894BC
:101830003F91062E000C3019000C000C3019305D61
:101840003193CEF6CF010895462F4770405D419306
:10185000B3E00FD0C9F7F6CF462F4F70405D4A3343
:1018600018F0495D31FD4052419302D0A9F7EACF0B
:10187000B4E0A6959795879577956795BA95C9F73A
:1018800000976105710508959B01AC010A2E06942D
:101890005795479537952795BA95C9F7620F731FE6
:1018A000841F951FA01D0895F999FECF92BD81BD9B
:1018B000F89A992780B50895262FF999FECF92BD01
:1018C00081BDF89A019700B4021639F01FBA20BD05
:1018D0000FB6F894FA9AF99A0FBE0895002480FD85
:1018E000060E660F11F08695D1F7802D08952F9280
:1018F0003F924F925F926F927F928F929F92AF92A0
:10190000BF92CF92DF92EF92FF920F931F93CF93EC
:10191000DF93CDB7DEB7CA1BDB0B0FB6F894DEBF83
:101920000FBECDBF09942A88398848885F846E84A9
:101930007D848C849B84AA84B984C884DF80EE80F3
:10194000FD800C811B81AA81B981CE0FD11D0FB6FC
:10195000F894DEBF0FBECDBFED010895F894FFCF20
:101960002C013C000101010100E100000000083CE5
:1019700025643A623A25643E0A003C25643A733A8B
:1019800025643E0A003C25643A69643A25643E0AAF
:10199000003C25643A7069643A25642C25643E0A4B
:1019A0000025643A25730A003C733A25643E0A0018
:0C19B0003C7374616C6C3A25643E0A00C4
:00000001FF
