:100000000C9456000C9462000C9474000C946000E4
:100010000C9460000C9460000C9460000C946000E0
:100020000C9460000C9460000C9460000C946000D0
:100030000C9460000C9460000C9460000C946000C0
:100040000C9460000C9460000C9460000C946000B0
:100050000C9460000C9460000C9460000C946000A0
:100060000C9460000C9460000C9460000C94600090
:100070000C9460000C9460000C9460000C94600080
:100080000C9460000C9460000C9460000C94600070
:100090000C9460000C9460000C9460000C94600060
:1000A0000C9460000C9460000C94600011241FBE3E
:1000B000CFEFD5E0DEBFCDBF0E9486000C949B0041
:1000C0000C9400001F920F920FB60F9211248F9381
:1000D0009F939EB180E489278EB99F918F910F9055
:1000E0000FBE0F901F9018951F920F920FB60F9290
:1000F00011248F939F939EB180E489278EB99F919D
:100100008F910F900FBE0F901F9018956E9A85E0FB
:100110008093690083E08DBB789490E42FE33DE009
:1001200083E0215030408040E1F700C000008EB1F4
:0A01300089278EB9F3CFF894FFCFB2
:00000001FF
