S01A0000636F696C67756E2D6D61696E2D626F6172642E7372656312
S11300000C94BE000C94DB000C94DB000C94DB001D
S11300100C94DB000C94DB000C94DB000C94DB00F0
S11300200C94DB000C94DB000C94E6080C9424097B
S11300300C94DB000C94DB000C94DB000C94DB00D0
S11300400C94DB000C94DB000C94DB000C94DB00C0
S11300500C94DB000C9474060C94DB000C94DB0011
S11300600C94DB000C94DB000C94DB000C94DB00A0
S11300700C94DB000C94DB000C94DB000C94DB0090
S11300800C94DB000C94DB000C94DB000C94DB0080
S11300900C94DB000C94DB000C94DB000C94DB0070
S11300A00C94DB000C94DB000C94DB0000010000DA
S11300B05F0112000200001C01430003000018014C
S11300C00401030904FA001C02030904E4001403F4
S11300D0030904D6000C0C03310032003300340051
S11300E035000000140354006500730074004200DE
S11300F065006E006300680000001C034C00610092
S113010075007200690020004D00690068006B00F2
S113011065006C0073000000040309040902430035
S1130120020100C03209040000010202010005249A
S1130130001001052401010104240206052406001F
S1130140010705820310004009040100020A0000AF
S11301500007050302400000070584024000001266
S113016001000202000010C0167A0400010102031B
S1130170010001C1120180360181360011241FBE25
S1130180CFEFDAE0DEBFCDBF12E0A0E0B1E0E2EDF8
S1130190FBE102C005900D92A834B107D9F722E023
S11301A0A8E4B2E001C01D92A03CB207E1F70E94AE
S11301B094040C94E70D0C94000085B7806885BF07
S11301C085B7806885BF83EF80BB8FEF81BB84B127
S11301D0806684B98AB180638AB93E9A8AB1806C98
S11301E08AB95E9A5F98089582E084BD95E095BDD2
S11301F09AEF97BD80936E0016BCE0E8F0E0808132
S1130200826A8083E1E8F0E080818B61808387E803
S113021093E190938700809386000895882381F06A
S1130220611102C0899A01C08998411102C0889A5B
S113023001C08898211102C08C9A08958C98089561
S1130240611102C08E9A01C08E98411102C08D9A2C
S113025001C08D98211102C08F9A08958F98089536
S1130260CF93C82F82FB222720F981FB442740F932
S1130270682F617080E00E940E01C5FB222720F9DF
S1130280C4FB442740F9C3FB662760F981E00E9460
S11302900E01CF910895CF93DF93EC0188818823D9
S11302A031F021960E948B0889918111FBCFDF9157
S11302B0CF910895EF92FF920F931F93CF93DF9303
S11302C0C62F8C01D0E012C00E9442088D3011F07C
S11302D08A3019F4F701108211C090EE980F9F35FF
S11302E050F4F70180830F5F1F4FDF5F7801DC1349
S11302F0EBCFDC2F02C0DC1738F3CD2F8C2FDF912E
S1130300CF911F910F91FF90EF900895009759F0AE
S113031020E030E045E34A95F1F700002F5F3F4FBE
S113032028173907B9F70895CF935C98CFEF5D9AF2
S11303308AE090E00E9486015D9884EF91E00E943B
S11303408601C150A1F7CFEF5D9A8EE190E00E9443
S113035086015D9884EF91E00E948601C150A1F767
S1130360CFEF5D9A86E490E00E9486015D9888EC68
S113037090E00E948601C150A1F7CFEF5D9A84E618
S113038090E00E9486015D988AE590E00E948601D3
S1130390C150A1F7CF910895E8ECF0E0908195FF6A
S11303A0FDCF8093CE0008951092CD0083E3809317
S11303B0CC0088E98093C90086E08093CA00089540
S11303C0EF92FF920F931F93CF93DF938C017C01E5
S11303D0C0E0D0E006C0F70181917F010E94CC010A
S11303E02196F80101900020E9F73197E01BF10B09
S11303F0CE17DF0780F3DF91CF911F910F91FF900C
S1130400EF9008950F931F93CF93DF93EC01062F82
S113041080E090E00E94960D182F2881293691F5EE
S11304208981843609F092C0CE0102960E94CF0AD7
S1130430C82FD92F682F80E090E00E949E0DDF9393
S1130440CF931F921F9384E191E09F938F9382E552
S113045092E09F938F930E94F50A2DB73EB7285FD1
S11304603F4F0FB6F8943EBF0FBE2DBF002329F0B7
S113047082E592E00E944B0152C282E592E00E9422
S1130480E0014DC22F33F1F41F928F9380E391E08A
S11304909F938F9382E592E09F938F930E94F50A36
S11304A00F900F900F900F900F900F90002329F052
S11304B082E592E00E944B0132C282E592E00E9402
S11304C0E0012DC22437E1F580E20E94300121963B
S11304D0DF93CF9382E591E09F938F9382E592E03F
S11304E09F938F930E94F50A0F900F900F900F9097
S11304F00F900F90011112C082E592E00E944B010F
S113050087E0E0E4F1E0A2E5B2E001900D928A9583
S1130510E1F782E592E00E94E00101C282E592E007
S11305200E94E00187E0E0E4F1E0A2E5B2E001909E
S11305300D928A95E1F782E592E00E944B01EFC1AA
S113054030E0205331092A30310518F1DF93CF937D
S11305501F921F9387E491E09F938F9382E592E02B
S11305609F938F930E94F50A2DB73EB7285F3F4FA4
S11305700FB6F8943EBF0FBE2DBF002329F082E5CD
S113058092E00E944B01CBC182E592E00E94E0011F
S1130590C6C1CE010E94CF0A212F30E028173907A7
S11305A009F0BDC188818A3349F09E012F5F3F4F16
S11305B0E9012F5F3F4F98819A33D1F789818736BC
S11305C051F58A81823609F087C18CB186FB882770
S11305D080F91F928F931F921F9386E591E09F935A
S11305E08F9382E592E09F938F930E94F50A8DB7D3
S11305F09EB708960FB6F8949EBF0FBE8DBF00231A
S113060029F082E592E00E944B0189C182E592E0E3
S11306100E94E00184C18C3679F48A81853609F020
S11306205BC18B81843609F057C1CE0104960E94C8
S1130630CF0A0E94300173C1833781F48A818236E4
S113064009F063C08B818C3609F05FC0CE0104963B
S11306500E94CF0A837080934A0261C1803751F5AA
S11306608A81893621F58B818E3609F58C8187360E
S1130670F1F41F921F9384E691E09F938F9382E598
S113068092E09F938F930E94F50A0F900F900F9022
S11306900F900F900F90002329F082E592E00E94C2
S11306A04B013DC182E592E00E94E00138C1109205
S11306B04D0235C18D36C1F48A81813349F4CE01AE
S11306C003960E94CF0A909389008093880027C1E3
S11306D0823309F001C1CE0103960E94CF0A9093A0
S11306E08B0080938A001BC1863601F58A8183378B
S11306F009F0F2C0CE0103960E94CF0A21E0892BB3
S113070009F420E020930C010AC1CE0102960E9454
S1130710CF0A8C01CFEF5D9AC8010E9486015D98D3
S1130720C8010E948601C150B1F7F9C0843609F0AE
S113073044C08A81813309F087C0CE0103960E94A8
S1130740CF0AE8E8F0E084EF91E0918380832FEF13
S113075037EA41E6215030404040E1F700C0000054
S113076028EC30E0318320832FEF37EA41E6215033
S113077030404040E1F700C00000918380831F9225
S11307801F938FE691E09F938F9382E592E09F936E
S11307908F930E94F50A0F900F900F900F900F9077
S11307A00F90002329F082E592E00E944B01B7C02C
S11307B08DE791E00E94E001B2C0813679F48A812C
S11307C0833609F089C0CE0103960E94CF0A21E046
S11307D0892B09F420E020930B01A1C08B3609F08A
S11307E055C05C9810910B0110920B01CE0102963A
S11307F00E94CF0A5D9A0E9486015D9810930B01B6
S11308001F921F9380E891E09F938F9382E592E07B
S11308109F938F930E94F50A0F900F900F900F9063
S11308200F900F90002329F082E592E00E944B0183
S113083004C08FE891E00E94E00180910B018823BD
S113084009F46DC05C9A6BC00E94940180910B0105
S11308501F928F9382E991E09F938F9382E592E0B8
S11308609F938F930E94F50A0F900F900F900F9013
S11308700F900F90002329F082E592E00E944B0133
S11308804EC082EA91E00E94E00149C0833621F51E
S11308905C9A81E080930A0180910B011F928F93EF
S11308A085EA91E09F938F9382E592E09F938F93E3
S11308B00E94F50A0F900F900F900F900F900F90D9
S11308C0002329F082E592E00E944B0128C086EBC8
S11308D091E00E94E00123C02196DF93CF931F9201
S11308E01F9387E491E09F938F9382E592E09F9317
S11308F08F930E94F50A2DB73EB7285F3F4F0FB67E
S1130900F8943EBF0FBE2DBF002329F082E592E08C
S11309100E944B0104C082E592E00E94E001DF9155
S1130920CF911F910F910895CF93DF93CDB7DEB789
S113093064970FB6F894DEBF0FBECDBFE1E6F0E0DA
S113094080E8808310820E94DD000E94F4000E94EF
S113095029082FEF83ED90E3215080409040E1F788
S113096000C000000E94D401789480E090E00E94CE
S1130970960D1F928F9389EB91E09F938F9382E55D
S113098092E09F938F930E94F50A82E592E00E9481
S11309904B0182E592E00E94E0010E9485066AE034
S11309A082E00E94570785E091E00E94F80780E00A
S11309B091E00E94E7070F900F900F900F900F9017
S11309C00F9000E010E0A12CB12CC12CD12C412CB3
S11309D0512C1C8A1B8A1A8A198A662463940F2E46
S11309E0F8ED2F2EF1E03F2EF02D0F2EFEEB7F2E93
S11309F0F02D0F2EFFE7EF2EF12CF02D4601809104
S1130A004C02882339F010924C0260E08FE992E0A6
S1130A100E9402021C9910C05C9880914B028111C3
S1130A200DC08CEC91E00E944B0185ED91E00E9499
S1130A30E00160924B0202C060924B020E94710876
S1130A408823D1F060E1CE0101960E945A01D82E8C
S1130A5020E040E0662D862D0E940E01A0E1DA120E
S1130A600BC0262D40E060E0862D0E940E01662D0D
S1130A70CE0101960E940202809148028F5F893C58
S1130A8018F48093480203C0B8ECB0934802689409
S1130A90DD24D4F89AC010924D0260920A0110929B
S1130AA0480285E992E00E94260705E912E0F80170
S1130AB084810E943001D80116968C91169780FF8C
S1130AC040C08091490281112EC05C9810910B01A5
S1130AD010920B015D9A5D01FD01848190E00E94FA
S1130AE086015D9810930B01D50114968C911F9289
S1130AF08F931F921F933F922F9282E592E09F93D0
S1130B008F930E94F50A82E592E00E944B010FB692
S1130B10F894DEBF0FBECDBF80910B0181115C9AAA
S1130B206092490210C0EDEEF1E0A2E5B2E08D2D35
S1130B3001900D928A95E1F782E592E00E944B01C3
S1130B4002C010924902E5E9F2E0018110E0980147
S1130B502F573109028110E0A8014F575109749EA3
S1130B60C001759E900D1124B7010E94A70A2B01A4
S1130B70420E531EE381F0E0A7014E1B5F0B749EEF
S1130B80C001759E900D1124B7010E94A70A4B0164
S1130B90820E931EA701401B510B749EC001759ECB
S1130BA0900D1124B7010E94A70A5B01A20EB31E87
S1130BB0EF57F1097E9EC0017F9E900D1124B7016D
S1130BC00E94A70A8B01020F131F0E94BE07811106
S1130BD062CF89899A898536910520F401969A8B8A
S1130BE0898B58C01F930F93BF92AF929F928F929D
S1130BF05F924F92ADEFB1E0BF93AF9382E592E085
S1130C009F938F930E94F50A82E592E00E94E0018F
S1130C1082E592E00E944B01CB88DC88FFEFCF1A7B
S1130C20DF0A0FB6F894DEBF0FBECDBF9B8990FDDF
S1130C3019C0809148021F928F93AAE1B2E0BF933A
S1130C40AF9382E592E09F938F930E94F50A0F90F1
S1130C500F900F900F900F900F90DC8ACB8A198A17
S1130C601A8A18C0809148021F928F93A4E2B2E0BE
S1130C70BF93AF9382E592E09F938F930E94F50A0E
S1130C800F900F900F900F900F900F90DC8ACB8AEB
S1130C90198A1A8A80914D028233F8F080910C01EE
S1130CA08823D9F010924D0286E1EFE2F2E0A2E54A
S1130CB0B2E001900D928A95E1F782E592E00E94FC
S1130CC04B0185E492E00E94E00180910A018823AF
S1130CD021F010920A010E9494018FE99FE001978C
S1130CE0F1F700C000008BCE1F920F920FB60F9247
S1130CF011248F9380914D028F5F80934D028F91C9
S1130D000F900FBE0F901F9018950E94080880E066
S1130D100E940E0881E00E9414080895EF92FF9249
S1130D201F93CF93DF93E82E80E00E941A08C7E058
S1130D30D0E010E0F12C97010C2E02C035952795D8
S1130D400A94E2F720FF04C081E00E94200803C057
S1130D5080E00E94200881E00E941A088AE18A95B6
S1130D60F1F700C0110F0E9426088111116080E084
S1130D700E941A088AE18A95F1F700C02197D8F6F3
S1130D80812FDF91CF911F91FF90EF900895CF9322
S1130D9080E00E9414088FEF0E948E06C82F81E025
S1130DA00E9414088C2FCF910895EF92FF920F9315
S1130DB01F93CF93DF934423A1F0EC01062F172F49
S1130DC04150E42EF12C2FEFE21AF20AE80EF91E3C
S1130DD089910E948E06F80181938F01CE15DF055B
S1130DE0B9F7DF91CF911F910F91FF90EF90089584
S1130DF00F931F93CF93DF93662371F0EC0161503F
S1130E00062F10E00F5F1F4F080F191F89910E94D2
S1130E108E06C017D107D1F7DF91CF911F910F91A3
S1130E200895CF93DF93C82FD62F80E00E94140833
S1130E308C2F8F7180620E948E068D2F0E948E06E9
S1130E4081E00E941408DF91CF910895CF93DF933E
S1130E50EC0180E00E94140881E60E948E06409115
S1130E60BF02BE01CE010E94D50681E00E94140893
S1130E7060E487E00E941107DF91CF91089580E03C
S1130E800E94140882EE0E948E0681E00E941408DB
S1130E9060E787E00E94110780E00E940E086BE083
S1130EA080E00E94110781E00E940E08089560937B
S1130EB0BF02682F85E00E94110760E081E10E9473
S1130EC011076091BF0282E10E94110760E083E193
S1130ED00E94110760E084E10E94110760E085E14F
S1130EE00E94110760E086E10E94110766E286E035
S1130EF00E9411076CE080E00E94110763E081E02A
S1130F000E94110763E082E00E9411076FE484E00D
S1130F100E94110760E08CE10E9411070E943F07C4
S1130F2008950F931F93CF93DF93082FEB01142F92
S1130F3080E00E941408802F8F710E948E06412F3A
S1130F40BE01CE010E94D50681E00E941408DF9103
S1130F50CF911F910F910895CF93DF931F92CDB737
S1130F60DEB741E0BE016F5F7F4F87E10E949107CA
S1130F70898181700F90DF91CF9108950E94C706F7
S1130F8086FD07C00E94AC0791E0882319F090E029
S1130F9001C091E0892F08950F931F93CF93DF939E
S1130FA0C82F8B01D42F80E00E9414088C2F8F71DE
S1130FB080620E948E066D2FC8010E94F80681E0AF
S1130FC00E941408DF91CF911F910F910895CF9340
S1130FD0DF93EC0180E00E940E0845E0BE018BE047
S1130FE00E94CC0781E00E940E08DF91CF91089502
S1130FF0CF93DF93EC0145E0BC018AE00E94CC076B
S113100045E0BE0180E10E94CC07DF91CF910895B5
S11310106E9A209A219A229A23980895882311F08F
S1131020769A089576980895882311F0289A089559
S113103028980895882311F0299A089529980895E5
S1131040882311F02A9A08952A98089583B1887004
S1131050089581E08093D70080EA8093D80082E1EC
S113106089BD09B400FEFDCF80E98093D8001092B9
S1131070E0001092510210924E028CE08093E20044
S1131080789408952FB7F89480915102811104C087
S11310902FBF8FEF9FEF089583E08093E900809145
S11310A0E80085FD12C082FD04C00BC082FD04C0AF
S11310B008C0E8EEF0E09BE69083808185FFF6CFE0
S11310C004C02FBF8FEF9FEF08958091F10090919E
S11310D0E80095FD03C09BE69093E8002FBF90E0E5
S11310E008959FB7F89480915102882389F083E092
S11310F08093E9008091F20081110BC02091E800F7
S113110022FF07C025FD05C02BE62093E80001C09F
S113111080E09FBF0895CF93DF939091510299236C
S113112009F44CC09FB7F89424E02093E90020917F
S11311304F02222349F02091E80025FD03C09FBF00
S11311408FEF41C010924F023091E400375E20913E
S1131150E80025FD24C09FBF9091E400931781F01F
S113116090915102992361F1A9EEB0E044E0E8EED8
S1131170F0E0C4EED0E00DC09FBF9881931305C08A
S113118081E080934F028FEF1EC09091510299230A
S1131190C9F09FB7F8944C93208125FFEDCF80933D
S11311A0F1008091E80085FD03C08AE38093E800A4
S11311B085E0809350029FBF80E005C08FEF03C09D
S11311C08FEF01C08FEFDF91CF9108951F920F929F
S11311D00FB60F9211248F939F93EF93FF93E1EE39
S11311E0F0E08081108283FF11C01092E90091E049
S11311F09093EB001092EC0092E19093ED0098E054
S11312009093F0001092510210924E0282FF13C08C
S113121080915102882379F080915002882359F0FB
S1131220815080935002811106C084E08093E900CC
S11312308AE38093E800FF91EF919F918F910F9043
S11312400FBE0F901F9018951F920F920FB60F921A
S113125011240F931F932F933F934F935F936F9397
S11312607F938F939F93AF93BF93CF93DF93EF932A
S1131270FF931092E9008091E80083FF4CC1E1EFF5
S1131280F0E0608180812081908130E0392B4081C1
S1131290908150E0592B7081C08192EF9093E800C7
S11312A0863009F058C004C081E28093EB003AC153
S11312B066E08CEA90E0FC01A591B4912A173B0703
S11312C011F0079623C0FC013296A591B4914A17F8
S11312D05B0711F007961AC0FC01349645915491AE
S11312E0FC0136962491872F90E09C2B8F3F91052B
S11312F019F010F08FEF90E0821708F4282FA8EE71
S1131300B0E070E16EEFC1EFD0E003C0615099F638
S1131310CBCF8C91982F9570E1F382FD03C1322FCE
S1131320213108F0372F332309F4F9C0FA01832F50
S113133094919883815031968111FACF8FEF830F66
S113134090E00196480F591F231B6C932111E1CFA4
S11313503031F9F2E7C0853061F48EEF8093E80014
S1131360E8EEF0E0808180FFFDCF20682093E30069
S1131370D9C0893009F035C06111CDC02093510224
S113138010924E02109250028EEF8093E80081E09A
S113139021E731E0C9EED0E0ABEEB0E00CEE10E0B6
S11313A06DEE70E08883A9014F5F5F4FF90194915E
S11313B09C93992361F0FA014491F8014083F90167
S11313C0329694912D5F3F4FFB01908301C09A01A7
S11313D08F5F853039F7EAEEF0E08EE1808310828A
S11313E0A1C0883081F4603809F095C0E8EEF0E0DF
S11313F0808180FFFDCF809151028093F1008EEFB8
S11314008093E8008FC08132B9F4613A09F083C057
S1131410E8EEF0E0808180FFFDCFEDE0F1E024E133
S113142031E0A1EFB0E081918C93E217F307D9F793
S11314308EEF8093E80076C08032D1F4613209F0F7
S11314406AC0E8EEF0E0808182FFFDCFEDE0F1E0DC
S113145024E131E0A1EFB0E08C918193E217F3072E
S1131460D9F7E8EEF0E08BEF80838EEF80835AC0EB
S1131470823271F4613209F04EC020934E02E8EEDC
S1131480F0E0808180FFFDCF8EEF8093E8004AC0BA
S113149081111AC0E8EEF0E0808180FFFDCF623850
S11314A051F4E9EEF0E040838091EB0085FB88275E
S11314B080F9108201C080E0E1EFF0E080831082C7
S11314C08EEF8093E8002EC0982F9D7F913019F500
S11314D0623009F5232BF9F44F779FEF940F943082
S11314E0D0F49EEF9093E8004093E900833021F418
S11314F081E28093EB0016C089E18093EB0081E0E8
S113150090E002C0880F991F4A95E2F7EAEEF0E0F6
S11315108083108207C081E28093EB0003C06C9348
S11315202111F7CEFF91EF91DF91CF91BF91AF9150
S11315309F918F917F916F915F914F913F912F91E7
S11315401F910F910F900FBE0F901F90189597FB4E
S1131550072E16F4009407D077FD09D00E94BB0A29
S113156007FC05D03EF4909581959F4F08957095A2
S113157061957F4F0895AA1BBB1B51E107C0AA1FA9
S1131580BB1FA617B70710F0A61BB70B881F991F20
S11315905A95A9F780959095BC01CD010895FC0159
S11315A088279927E89421912032E9F3293010F013
S11315B02E30C8F32B3241F02D3239F4689404C034
S11315C00E94ED0A820F911D219120532A30C0F30D
S11315D01EF4909581959F4F08957AE0979F902DE2
S11315E0879F802D910D11240895AEE0B0E0EBEFBC
S11315F0FAE00C94BE0D0D891E8986E08C831A8353
S113160009838FEF9FE79E838D83AE01475E5F4F13
S11316106F89788DCE0101960E94180B2F81388531
S1131620F801E20FF31F10822E96E4E00C94DA0D19
S1131630ACE0B0E0EEE1FBE00C94B00D7C016B019A
S11316408A01FC0117821682838181FFBDC1CE010C
S113165001964C01F7019381F60193FD859193FF67
S113166081916F01882309F4ABC1853239F493FD6C
S1131670859193FF81916F01853229F4B70190E040
S11316800E94000DE7CF512C312C20E02032A0F431
S11316908B3269F030F4803259F0833269F420617E
S11316A02CC08D3239F0803339F4216026C0226099
S11316B0246023C0286021C027FD27C030ED380FE7
S11316C03A3078F426FF06C0FAE05F9E300D11240C
S11316D0532E13C08AE0389E300D1124332E20621D
S11316E00CC08E3221F426FD6BC1206406C08C36FA
S11316F011F4206802C0883641F4F60193FD859107
S113170093FF81916F018111C1CF982F9F7D9554D3
S1131710933028F40C5F1F4FFFE3F9830DC0833629
S113172031F0833771F0833509F05BC022C0F801D2
S1131730808189830E5F1F4F44244394512C5401AC
S113174015C03801F2E06F0E711CF801A080B18061
S113175026FF03C0652D70E002C06FEF7FEFC50167
S11317602C870E94F50C2C0183012C852F77222EC7
S113177017C03801F2E06F0E711CF801A080B1802F
S113178026FF03C0652D70E002C06FEF7FEFC50137
S11317902C870E94EA0C2C012C852068222E8301C0
S11317A023FC1BC0832D90E048165906B0F4B70102
S11317B080E290E00E94000D3A94F4CFF50127FCFA
S11317C0859127FE81915F01B70190E00E94000D91
S11317D031103A94F1E04F1A51084114510471F751
S11317E0E5C0843611F0893639F5F80127FF07C0C2
S11317F060817181828193810C5F1F4F08C0608179
S11318007181072E000C880B990B0E5F1F4F2F76EA
S1131810722E97FF09C090958095709561957F4FC2
S11318208F4F9F4F2068722E2AE030E0A4010E945F
S1131830380DA82EA81844C0853729F42F7EB22E5F
S11318402AE030E025C0F22FF97FBF2E8F36C1F099
S113185018F4883579F0B4C0803719F0883721F04E
S1131860AFC02F2F2061B22EB4FE0DC08B2D84602B
S1131870B82E09C024FF0AC09F2F9660B92E06C057
S113188028E030E005C020E130E002C020E132E091
S1131890F801B7FE07C060817181828193810C5F7A
S11318A01F4F06C06081718180E090E00E5F1F4F82
S11318B0A4010E94380DA82EA818FB2DFF777F2EB7
S11318C076FE0BC0372D3E7FA51450F474FE0AC07B
S11318D072FC08C0372D3E7E05C0BA2C372D03C0DC
S11318E0BA2C01C0B52C34FF0DC0FE01EA0DF11D68
S11318F08081803311F4397E09C032FF06C0B3946D
S1131900B39404C0832F867809F0B39433FD13C0D5
S113191030FF06C05A2CB31418F4530C5B18B32CC4
S1131920B31468F4B70180E290E03C870E94000D94
S1131930B3943C85F5CFB31410F43B1801C0312C9B
S113194034FF12C0B70180E390E03C870E94000D91
S11319503C8532FF17C031FD03C088E790E002C028
S113196088E590E0B7010CC0832F867859F031FFE9
S113197002C08BE201C080E237FD8DE2B70190E046
S11319800E94000DA51438F4B70180E390E00E9492
S1131990000D5A94F7CFAA94F401EA0DF11D808149
S11319A0B70190E00E94000DA110F5CF332009F497
S11319B051CEB70180E290E00E94000D3A94F6CF38
S11319C0F7018681978102C08FEF9FEF2C96E2E1A9
S11319D00C94CC0DFC010590615070400110D8F7B7
S11319E0809590958E0F9F1F0895FC016150704063
S11319F001900110D8F7809590958E0F9F1F089540
S1131A000F931F93CF93DF93FB01238121FD03C029
S1131A108FEF9FEF28C022FF16C046815781248193
S1131A2035814217530744F4A081B1819D012F5F92
S1131A303F4F318320838C93268137812F5F3F4F23
S1131A403783268310C0EB01092F182F0084F185FA
S1131A50E02D0995892BE1F68E819F8101969F8364
S1131A608E83812F902FDF91CF911F910F91089535
S1131A70FA01AA27283051F1203181F1E8946F93BB
S1131A806E7F6E5F7F4F8F4F9F4FAF4FB1E03ED061
S1131A90B4E03CD0670F781F891F9A1FA11D680FFF
S1131AA0791F8A1F911DA11D6A0F711D811D911D32
S1131AB0A11D20D009F468943F912AE0269F1124A7
S1131AC03019305D3193DEF6CF010895462F47700B
S1131AD0405D4193B3E00FD0C9F7F6CF462F4F7066
S1131AE0405D4A3318F0495D31FD4052419302D0C4
S1131AF0A9F7EACFB4E0A69597958795779567956A
S1131B00BA95C9F700976105710508959B01AC0169
S1131B100A2E06945795479537952795BA95C9F790
S1131B20620F731F841F951FA01D0895F999FECF9E
S1131B3092BD81BDF89A992780B50895262FF99909
S1131B40FECF92BD81BDF89A019700B4021639F018
S1131B501FBA20BD0FB6F894FA9AF99A0FBE0895E9
S1131B602F923F924F925F926F927F928F929F92A9
S1131B70AF92BF92CF92DF92EF92FF920F931F9397
S1131B80CF93DF93CDB7DEB7CA1BDB0B0FB6F89448
S1131B90DEBF0FBECDBF09942A88398848885F8488
S1131BA06E847D848C849B84AA84B984C884DF80F9
S1131BB0EE80FD800C811B81AA81B981CE0FD11DDD
S1131BC00FB6F894DEBF0FBECDBFED010895F894B3
S1051BD0FFCF41
S1131BD2E7E7E7E7E7D7D7D7D7D701010100E10065
S1131BE2000000083C69645F6368616E6765645F56
S1131BF266726F6D5F25645F746F5F25643E0A00D1
S1131C023C636F6E6E65637465643A25643E0A00D4
S1131C1273656E74210A0025643A756E6B6E6F7774
S1131C226E3A25730A003C25643A62616C6C3A256B
S1131C32643E0A003C25643A706F6E673E0A003CBB
S1131C4225643A72756E6E696E673E0A00520A0026
S1131C526B69636B5F646F6E652C2025640A004BAD
S1131C620A00646973636861726765642C20256481
S1131C720A00440A004368617267696E67286163F7
S1131C823A2564290A00630A003C636F6E6E656339
S1131C927465645F69643A25643E0A0043484152AC
S1131CA24745442100430A006B69636B5F646F6EAE
S1131CB2652C2025642C20663A25640A00616C7226
S1131CC265616479206B69636B65640A00313A73F8
S1131CD26425690A323A736425690A333A736425BE
S1131CE2690A343A736425690A00333A7364352005
S1131CF225690A00333A73642D352025690A003CAC
S1131D026661696C736166655F747269676765723F
S10B1D1265643E0A00460A0064
S9030000FC
